{
  "contractName": "NoteContract",
  "abi": [
    {
      "anonymous": false,
      "inputs": [
        {
          "indexed": true,
          "internalType": "address",
          "name": "owner",
          "type": "address"
        },
        {
          "indexed": true,
          "internalType": "address",
          "name": "approved",
          "type": "address"
        },
        {
          "indexed": true,
          "internalType": "uint256",
          "name": "tokenId",
          "type": "uint256"
        }
      ],
      "name": "Approval",
      "type": "event"
    },
    {
      "anonymous": false,
      "inputs": [
        {
          "indexed": true,
          "internalType": "address",
          "name": "owner",
          "type": "address"
        },
        {
          "indexed": true,
          "internalType": "address",
          "name": "operator",
          "type": "address"
        },
        {
          "indexed": false,
          "internalType": "bool",
          "name": "approved",
          "type": "bool"
        }
      ],
      "name": "ApprovalForAll",
      "type": "event"
    },
    {
      "anonymous": false,
      "inputs": [
        {
          "indexed": false,
          "internalType": "uint256",
          "name": "_fromTokenId",
          "type": "uint256"
        },
        {
          "indexed": false,
          "internalType": "uint256",
          "name": "_toTokenId",
          "type": "uint256"
        }
      ],
      "name": "BatchMetadataUpdate",
      "type": "event"
    },
    {
      "anonymous": false,
      "inputs": [
        {
          "indexed": false,
          "internalType": "uint8",
          "name": "version",
          "type": "uint8"
        }
      ],
      "name": "Initialized",
      "type": "event"
    },
    {
      "anonymous": false,
      "inputs": [
        {
          "indexed": false,
          "internalType": "uint256",
          "name": "_tokenId",
          "type": "uint256"
        }
      ],
      "name": "MetadataUpdate",
      "type": "event"
    },
    {
      "anonymous": false,
      "inputs": [
        {
          "indexed": false,
          "internalType": "uint256",
          "name": "tokenId",
          "type": "uint256"
        },
        {
          "indexed": false,
          "internalType": "uint256",
          "name": "creatTime",
          "type": "uint256"
        },
        {
          "indexed": false,
          "internalType": "uint256",
          "name": "updateTime",
          "type": "uint256"
        },
        {
          "indexed": false,
          "internalType": "address",
          "name": "creator",
          "type": "address"
        }
      ],
      "name": "NoteCreated",
      "type": "event"
    },
    {
      "anonymous": false,
      "inputs": [
        {
          "indexed": true,
          "internalType": "address",
          "name": "from",
          "type": "address"
        },
        {
          "indexed": true,
          "internalType": "address",
          "name": "to",
          "type": "address"
        },
        {
          "indexed": true,
          "internalType": "uint256",
          "name": "tokenId",
          "type": "uint256"
        }
      ],
      "name": "Transfer",
      "type": "event"
    },
    {
      "inputs": [
        {
          "internalType": "address",
          "name": "to",
          "type": "address"
        },
        {
          "internalType": "uint256",
          "name": "tokenId",
          "type": "uint256"
        }
      ],
      "name": "approve",
      "outputs": [],
      "stateMutability": "nonpayable",
      "type": "function"
    },
    {
      "inputs": [
        {
          "internalType": "address",
          "name": "owner",
          "type": "address"
        }
      ],
      "name": "balanceOf",
      "outputs": [
        {
          "internalType": "uint256",
          "name": "",
          "type": "uint256"
        }
      ],
      "stateMutability": "view",
      "type": "function",
      "constant": true
    },
    {
      "inputs": [
        {
          "internalType": "uint256",
          "name": "tokenId",
          "type": "uint256"
        }
      ],
      "name": "getApproved",
      "outputs": [
        {
          "internalType": "address",
          "name": "",
          "type": "address"
        }
      ],
      "stateMutability": "view",
      "type": "function",
      "constant": true
    },
    {
      "inputs": [
        {
          "internalType": "address",
          "name": "owner",
          "type": "address"
        },
        {
          "internalType": "address",
          "name": "operator",
          "type": "address"
        }
      ],
      "name": "isApprovedForAll",
      "outputs": [
        {
          "internalType": "bool",
          "name": "",
          "type": "bool"
        }
      ],
      "stateMutability": "view",
      "type": "function",
      "constant": true
    },
    {
      "inputs": [],
      "name": "name",
      "outputs": [
        {
          "internalType": "string",
          "name": "",
          "type": "string"
        }
      ],
      "stateMutability": "view",
      "type": "function",
      "constant": true
    },
    {
      "inputs": [
        {
          "internalType": "uint256",
          "name": "tokenId",
          "type": "uint256"
        }
      ],
      "name": "ownerOf",
      "outputs": [
        {
          "internalType": "address",
          "name": "",
          "type": "address"
        }
      ],
      "stateMutability": "view",
      "type": "function",
      "constant": true
    },
    {
      "inputs": [
        {
          "internalType": "address",
          "name": "from",
          "type": "address"
        },
        {
          "internalType": "address",
          "name": "to",
          "type": "address"
        },
        {
          "internalType": "uint256",
          "name": "tokenId",
          "type": "uint256"
        }
      ],
      "name": "safeTransferFrom",
      "outputs": [],
      "stateMutability": "nonpayable",
      "type": "function"
    },
    {
      "inputs": [
        {
          "internalType": "address",
          "name": "from",
          "type": "address"
        },
        {
          "internalType": "address",
          "name": "to",
          "type": "address"
        },
        {
          "internalType": "uint256",
          "name": "tokenId",
          "type": "uint256"
        },
        {
          "internalType": "bytes",
          "name": "data",
          "type": "bytes"
        }
      ],
      "name": "safeTransferFrom",
      "outputs": [],
      "stateMutability": "nonpayable",
      "type": "function"
    },
    {
      "inputs": [
        {
          "internalType": "address",
          "name": "operator",
          "type": "address"
        },
        {
          "internalType": "bool",
          "name": "approved",
          "type": "bool"
        }
      ],
      "name": "setApprovalForAll",
      "outputs": [],
      "stateMutability": "nonpayable",
      "type": "function"
    },
    {
      "inputs": [
        {
          "internalType": "bytes4",
          "name": "interfaceId",
          "type": "bytes4"
        }
      ],
      "name": "supportsInterface",
      "outputs": [
        {
          "internalType": "bool",
          "name": "",
          "type": "bool"
        }
      ],
      "stateMutability": "view",
      "type": "function",
      "constant": true
    },
    {
      "inputs": [],
      "name": "symbol",
      "outputs": [
        {
          "internalType": "string",
          "name": "",
          "type": "string"
        }
      ],
      "stateMutability": "view",
      "type": "function",
      "constant": true
    },
    {
      "inputs": [
        {
          "internalType": "uint256",
          "name": "tokenId",
          "type": "uint256"
        }
      ],
      "name": "tokenURI",
      "outputs": [
        {
          "internalType": "string",
          "name": "",
          "type": "string"
        }
      ],
      "stateMutability": "view",
      "type": "function",
      "constant": true
    },
    {
      "inputs": [
        {
          "internalType": "address",
          "name": "from",
          "type": "address"
        },
        {
          "internalType": "address",
          "name": "to",
          "type": "address"
        },
        {
          "internalType": "uint256",
          "name": "tokenId",
          "type": "uint256"
        }
      ],
      "name": "transferFrom",
      "outputs": [],
      "stateMutability": "nonpayable",
      "type": "function"
    },
    {
      "inputs": [],
      "name": "initialize",
      "outputs": [],
      "stateMutability": "nonpayable",
      "type": "function"
    },
    {
      "inputs": [
        {
          "internalType": "string",
          "name": "tokenURI",
          "type": "string"
        }
      ],
      "name": "mintNote",
      "outputs": [
        {
          "internalType": "uint256",
          "name": "",
          "type": "uint256"
        }
      ],
      "stateMutability": "nonpayable",
      "type": "function"
    },
    {
      "inputs": [],
      "name": "getOwnedNotes",
      "outputs": [
        {
          "components": [
            {
              "internalType": "uint256",
              "name": "tokenId",
              "type": "uint256"
            },
            {
              "internalType": "uint256",
              "name": "creatTime",
              "type": "uint256"
            },
            {
              "internalType": "uint256",
              "name": "updateTime",
              "type": "uint256"
            },
            {
              "internalType": "address",
              "name": "creator",
              "type": "address"
            }
          ],
          "internalType": "struct NoteContract.Note[]",
          "name": "",
          "type": "tuple[]"
        }
      ],
      "stateMutability": "view",
      "type": "function",
      "constant": true
    },
    {
      "inputs": [
        {
          "internalType": "uint256",
          "name": "tokenId",
          "type": "uint256"
        }
      ],
      "name": "burnTokenId",
      "outputs": [],
      "stateMutability": "nonpayable",
      "type": "function"
    }
  ],
  "bytecode": "0x608060405234801561001057600080fd5b50613a65806100206000396000f3fe608060405234801561001057600080fd5b506004361061010b5760003560e01c80636352211e116100a2578063a22cb46511610071578063a22cb465146102b8578063b88d4fde146102d4578063c32d88ff146102f0578063c87b56dd1461030c578063e985e9c51461033c5761010b565b80636352211e1461023057806370a08231146102605780638129fc1c1461029057806395d89b411461029a5761010b565b806323b872dd116100de57806323b872dd146101aa5780632d731b69146101c65780632f2f7c4d146101e457806342842e0e146102145761010b565b806301ffc9a71461011057806306fdde0314610140578063081812fc1461015e578063095ea7b31461018e575b600080fd5b61012a600480360381019061012591906126d3565b61036c565b604051610137919061271b565b60405180910390f35b6101486103cd565b60405161015591906127cf565b60405180910390f35b61017860048036038101906101739190612827565b61045f565b6040516101859190612895565b60405180910390f35b6101a860048036038101906101a391906128dc565b6104a5565b005b6101c460048036038101906101bf919061291c565b6105bc565b005b6101ce61061c565b6040516101db9190612a91565b60405180910390f35b6101fe60048036038101906101f99190612be8565b6107b6565b60405161020b9190612c40565b60405180910390f35b61022e6004803603810190610229919061291c565b610989565b005b61024a60048036038101906102459190612827565b6109a9565b6040516102579190612895565b60405180910390f35b61027a60048036038101906102759190612c5b565b610a2f565b6040516102879190612c40565b60405180910390f35b610298610ae6565b005b6102a2610c90565b6040516102af91906127cf565b60405180910390f35b6102d260048036038101906102cd9190612cb4565b610d22565b005b6102ee60048036038101906102e99190612d95565b610d38565b005b61030a60048036038101906103059190612827565b610d9a565b005b61032660048036038101906103219190612827565b610e4a565b60405161033391906127cf565b60405180910390f35b61035660048036038101906103519190612e18565b610f5c565b604051610363919061271b565b60405180910390f35b6000634906490660e01b7bffffffffffffffffffffffffffffffffffffffffffffffffffffffff1916827bffffffffffffffffffffffffffffffffffffffffffffffffffffffff191614806103c657506103c582610ff0565b5b9050919050565b6060606580546103dc90612e87565b80601f016020809104026020016040519081016040528092919081815260200182805461040890612e87565b80156104555780601f1061042a57610100808354040283529160200191610455565b820191906000526020600020905b81548152906001019060200180831161043857829003601f168201915b5050505050905090565b600061046a826110d2565b6069600083815260200190815260200160002060009054906101000a900473ffffffffffffffffffffffffffffffffffffffff169050919050565b60006104b0826109a9565b90508073ffffffffffffffffffffffffffffffffffffffff168373ffffffffffffffffffffffffffffffffffffffff1603610520576040517f08c379a000000000000000000000000000000000000000000000000000000000815260040161051790612f2a565b60405180910390fd5b8073ffffffffffffffffffffffffffffffffffffffff1661053f61111d565b73ffffffffffffffffffffffffffffffffffffffff16148061056e575061056d8161056861111d565b610f5c565b5b6105ad576040517f08c379a00000000000000000000000000000000000000000000000000000000081526004016105a490612fbc565b60405180910390fd5b6105b78383611125565b505050565b6105cd6105c761111d565b826111de565b61060c576040517f08c379a00000000000000000000000000000000000000000000000000000000081526004016106039061304e565b60405180910390fd5b610617838383611273565b505050565b6060600061062933610a2f565b905060008167ffffffffffffffff81111561064757610646612abd565b5b60405190808252806020026020018201604052801561068057816020015b61066d612546565b8152602001906001900390816106655790505b50905060005b828110156107ad57600060cd60003373ffffffffffffffffffffffffffffffffffffffff1673ffffffffffffffffffffffffffffffffffffffff1681526020019081526020016000206000838152602001908152602001600020549050600060cc60008381526020019081526020016000209050806040518060800160405290816000820154815260200160018201548152602001600282015481526020016003820160009054906101000a900473ffffffffffffffffffffffffffffffffffffffff1673ffffffffffffffffffffffffffffffffffffffff1673ffffffffffffffffffffffffffffffffffffffff168152505084848151811061078d5761078c61306e565b5b6020026020010181905250505080806107a5906130cc565b915050610686565b50809250505090565b600060cb826040516107c89190613150565b908152602001604051809103902060009054906101000a900460ff1615610824576040517f08c379a000000000000000000000000000000000000000000000000000000000815260040161081b906131b3565b60405180910390fd5b61082e60ca61156c565b61083860c961156c565b600061084460ca611582565b90506108503382611590565b61085a81846115ae565b600160cb8460405161086c9190613150565b908152602001604051809103902060006101000a81548160ff02191690831515021790555060405180608001604052808281526020014281526020014281526020013373ffffffffffffffffffffffffffffffffffffffff1681525060cc600083815260200190815260200160002060008201518160000155602082015181600101556040820151816002015560608201518160030160006101000a81548173ffffffffffffffffffffffffffffffffffffffff021916908373ffffffffffffffffffffffffffffffffffffffff1602179055509050507fef8b88058411cf304900117439159724f0f88143b9aca4880877f1b8baa69a558142423360405161097894939291906131d3565b60405180910390a180915050919050565b6109a483838360405180602001604052806000815250610d38565b505050565b6000806109b583611659565b9050600073ffffffffffffffffffffffffffffffffffffffff168173ffffffffffffffffffffffffffffffffffffffff1603610a26576040517f08c379a0000000000000000000000000000000000000000000000000000000008152600401610a1d90613264565b60405180910390fd5b80915050919050565b60008073ffffffffffffffffffffffffffffffffffffffff168273ffffffffffffffffffffffffffffffffffffffff1603610a9f576040517f08c379a0000000000000000000000000000000000000000000000000000000008152600401610a96906132f6565b60405180910390fd5b606860008373ffffffffffffffffffffffffffffffffffffffff1673ffffffffffffffffffffffffffffffffffffffff168152602001908152602001600020549050919050565b60008060019054906101000a900460ff16159050808015610b175750600160008054906101000a900460ff1660ff16105b80610b445750610b2630611696565b158015610b435750600160008054906101000a900460ff1660ff16145b5b610b83576040517f08c379a0000000000000000000000000000000000000000000000000000000008152600401610b7a90613388565b60405180910390fd5b60016000806101000a81548160ff021916908360ff1602179055508015610bc0576001600060016101000a81548160ff0219169083151502179055505b610c346040518060400160405280600881526020017f776562334e6f74650000000000000000000000000000000000000000000000008152506040518060400160405280600281526020017f4e430000000000000000000000000000000000000000000000000000000000008152506116b9565b8015610c8d5760008060016101000a81548160ff0219169083151502179055507f7f26b83ff96e1f2b6a682f133852f6798a09c465da95921460cefb38474024986001604051610c8491906133fa565b60405180910390a15b50565b606060668054610c9f90612e87565b80601f0160208091040260200160405190810160405280929190818152602001828054610ccb90612e87565b8015610d185780601f10610ced57610100808354040283529160200191610d18565b820191906000526020600020905b815481529060010190602001808311610cfb57829003601f168201915b5050505050905090565b610d34610d2d61111d565b8383611716565b5050565b610d49610d4361111d565b836111de565b610d88576040517f08c379a0000000000000000000000000000000000000000000000000000000008152600401610d7f9061304e565b60405180910390fd5b610d9484848484611882565b50505050565b60cc600082815260200190815260200160002060030160009054906101000a900473ffffffffffffffffffffffffffffffffffffffff1673ffffffffffffffffffffffffffffffffffffffff163373ffffffffffffffffffffffffffffffffffffffff1614610e3e576040517f08c379a0000000000000000000000000000000000000000000000000000000008152600401610e3590613487565b60405180910390fd5b610e47816118de565b50565b6060610e55826110d2565b6000609760008481526020019081526020016000208054610e7590612e87565b80601f0160208091040260200160405190810160405280929190818152602001828054610ea190612e87565b8015610eee5780601f10610ec357610100808354040283529160200191610eee565b820191906000526020600020905b815481529060010190602001808311610ed157829003601f168201915b505050505090506000610eff611931565b90506000815103610f14578192505050610f57565b600082511115610f49578082604051602001610f319291906134a7565b60405160208183030381529060405292505050610f57565b610f5284611948565b925050505b919050565b6000606a60008473ffffffffffffffffffffffffffffffffffffffff1673ffffffffffffffffffffffffffffffffffffffff16815260200190815260200160002060008373ffffffffffffffffffffffffffffffffffffffff1673ffffffffffffffffffffffffffffffffffffffff16815260200190815260200160002060009054906101000a900460ff16905092915050565b60007f80ac58cd000000000000000000000000000000000000000000000000000000007bffffffffffffffffffffffffffffffffffffffffffffffffffffffff1916827bffffffffffffffffffffffffffffffffffffffffffffffffffffffff191614806110bb57507f5b5e139f000000000000000000000000000000000000000000000000000000007bffffffffffffffffffffffffffffffffffffffffffffffffffffffff1916827bffffffffffffffffffffffffffffffffffffffffffffffffffffffff1916145b806110cb57506110ca826119b0565b5b9050919050565b6110db81611a1a565b61111a576040517f08c379a000000000000000000000000000000000000000000000000000000000815260040161111190613264565b60405180910390fd5b50565b600033905090565b816069600083815260200190815260200160002060006101000a81548173ffffffffffffffffffffffffffffffffffffffff021916908373ffffffffffffffffffffffffffffffffffffffff160217905550808273ffffffffffffffffffffffffffffffffffffffff16611198836109a9565b73ffffffffffffffffffffffffffffffffffffffff167f8c5be1e5ebec7d5bd14f71427d1e84f3dd0314c0f7b2291e5b200ac8c7c3b92560405160405180910390a45050565b6000806111ea836109a9565b90508073ffffffffffffffffffffffffffffffffffffffff168473ffffffffffffffffffffffffffffffffffffffff16148061122c575061122b8185610f5c565b5b8061126a57508373ffffffffffffffffffffffffffffffffffffffff166112528461045f565b73ffffffffffffffffffffffffffffffffffffffff16145b91505092915050565b8273ffffffffffffffffffffffffffffffffffffffff16611293826109a9565b73ffffffffffffffffffffffffffffffffffffffff16146112e9576040517f08c379a00000000000000000000000000000000000000000000000000000000081526004016112e09061353d565b60405180910390fd5b600073ffffffffffffffffffffffffffffffffffffffff168273ffffffffffffffffffffffffffffffffffffffff1603611358576040517f08c379a000000000000000000000000000000000000000000000000000000000815260040161134f906135cf565b60405180910390fd5b6113658383836001611a5b565b8273ffffffffffffffffffffffffffffffffffffffff16611385826109a9565b73ffffffffffffffffffffffffffffffffffffffff16146113db576040517f08c379a00000000000000000000000000000000000000000000000000000000081526004016113d29061353d565b60405180910390fd5b6069600082815260200190815260200160002060006101000a81549073ffffffffffffffffffffffffffffffffffffffff02191690556001606860008573ffffffffffffffffffffffffffffffffffffffff1673ffffffffffffffffffffffffffffffffffffffff168152602001908152602001600020600082825403925050819055506001606860008473ffffffffffffffffffffffffffffffffffffffff1673ffffffffffffffffffffffffffffffffffffffff16815260200190815260200160002060008282540192505081905550816067600083815260200190815260200160002060006101000a81548173ffffffffffffffffffffffffffffffffffffffff021916908373ffffffffffffffffffffffffffffffffffffffff160217905550808273ffffffffffffffffffffffffffffffffffffffff168473ffffffffffffffffffffffffffffffffffffffff167fddf252ad1be2c89b69c2b068fc378daa952ba7f163c4a11628f55a4df523b3ef60405160405180910390a46115678383836001611b5f565b505050565b6001816000016000828254019250508190555050565b600081600001549050919050565b6115aa828260405180602001604052806000815250611b65565b5050565b6115b782611a1a565b6115f6576040517f08c379a00000000000000000000000000000000000000000000000000000000081526004016115ed90613661565b60405180910390fd5b8060976000848152602001908152602001600020908051906020019061161d929190612584565b507ff8e1a15aba9398e019f0b49df1a4fde98ee17ae345cb5f6b5e2c27f5033e8ce78260405161164d9190612c40565b60405180910390a15050565b60006067600083815260200190815260200160002060009054906101000a900473ffffffffffffffffffffffffffffffffffffffff169050919050565b6000808273ffffffffffffffffffffffffffffffffffffffff163b119050919050565b600060019054906101000a900460ff16611708576040517f08c379a00000000000000000000000000000000000000000000000000000000081526004016116ff906136f3565b60405180910390fd5b6117128282611bc0565b5050565b8173ffffffffffffffffffffffffffffffffffffffff168373ffffffffffffffffffffffffffffffffffffffff1603611784576040517f08c379a000000000000000000000000000000000000000000000000000000000815260040161177b9061375f565b60405180910390fd5b80606a60008573ffffffffffffffffffffffffffffffffffffffff1673ffffffffffffffffffffffffffffffffffffffff16815260200190815260200160002060008473ffffffffffffffffffffffffffffffffffffffff1673ffffffffffffffffffffffffffffffffffffffff16815260200190815260200160002060006101000a81548160ff0219169083151502179055508173ffffffffffffffffffffffffffffffffffffffff168373ffffffffffffffffffffffffffffffffffffffff167f17307eab39ab6107e8899845ad3d59bd9653f200f220920489ca2b5937696c3183604051611875919061271b565b60405180910390a3505050565b61188d848484611273565b61189984848484611c41565b6118d8576040517f08c379a00000000000000000000000000000000000000000000000000000000081526004016118cf906137f1565b60405180910390fd5b50505050565b6118e781611dc8565b600060976000838152602001908152602001600020805461190790612e87565b90501461192e5760976000828152602001908152602001600020600061192d919061260a565b5b50565b606060405180602001604052806000815250905090565b6060611953826110d2565b600061195d611931565b9050600081511161197d57604051806020016040528060008152506119a8565b8061198784611f16565b6040516020016119989291906134a7565b6040516020818303038152906040525b915050919050565b60007f01ffc9a7000000000000000000000000000000000000000000000000000000007bffffffffffffffffffffffffffffffffffffffffffffffffffffffff1916827bffffffffffffffffffffffffffffffffffffffffffffffffffffffff1916149050919050565b60008073ffffffffffffffffffffffffffffffffffffffff16611a3c83611659565b73ffffffffffffffffffffffffffffffffffffffff1614159050919050565b611a6784848484611fe4565b600073ffffffffffffffffffffffffffffffffffffffff168473ffffffffffffffffffffffffffffffffffffffff1614158015611ad057508273ffffffffffffffffffffffffffffffffffffffff168473ffffffffffffffffffffffffffffffffffffffff1614155b15611ae057611adf8483611fea565b5b600073ffffffffffffffffffffffffffffffffffffffff168373ffffffffffffffffffffffffffffffffffffffff1614158015611b4957508373ffffffffffffffffffffffffffffffffffffffff168373ffffffffffffffffffffffffffffffffffffffff1614155b15611b5957611b588383612157565b5b50505050565b50505050565b611b6f83836121d6565b611b7c6000848484611c41565b611bbb576040517f08c379a0000000000000000000000000000000000000000000000000000000008152600401611bb2906137f1565b60405180910390fd5b505050565b600060019054906101000a900460ff16611c0f576040517f08c379a0000000000000000000000000000000000000000000000000000000008152600401611c06906136f3565b60405180910390fd5b8160659080519060200190611c25929190612584565b508060669080519060200190611c3c929190612584565b505050565b6000611c628473ffffffffffffffffffffffffffffffffffffffff16611696565b15611dbb578373ffffffffffffffffffffffffffffffffffffffff1663150b7a02611c8b61111d565b8786866040518563ffffffff1660e01b8152600401611cad9493929190613866565b6020604051808303816000875af1925050508015611ce957506040513d601f19601f82011682018060405250810190611ce691906138c7565b60015b611d6b573d8060008114611d19576040519150601f19603f3d011682016040523d82523d6000602084013e611d1e565b606091505b506000815103611d63576040517f08c379a0000000000000000000000000000000000000000000000000000000008152600401611d5a906137f1565b60405180910390fd5b805181602001fd5b63150b7a0260e01b7bffffffffffffffffffffffffffffffffffffffffffffffffffffffff1916817bffffffffffffffffffffffffffffffffffffffffffffffffffffffff191614915050611dc0565b600190505b949350505050565b6000611dd3826109a9565b9050611de3816000846001611a5b565b611dec826109a9565b90506069600083815260200190815260200160002060006101000a81549073ffffffffffffffffffffffffffffffffffffffff02191690556001606860008373ffffffffffffffffffffffffffffffffffffffff1673ffffffffffffffffffffffffffffffffffffffff168152602001908152602001600020600082825403925050819055506067600083815260200190815260200160002060006101000a81549073ffffffffffffffffffffffffffffffffffffffff021916905581600073ffffffffffffffffffffffffffffffffffffffff168273ffffffffffffffffffffffffffffffffffffffff167fddf252ad1be2c89b69c2b068fc378daa952ba7f163c4a11628f55a4df523b3ef60405160405180910390a4611f12816000846001611b5f565b5050565b606060006001611f25846123f3565b01905060008167ffffffffffffffff811115611f4457611f43612abd565b5b6040519080825280601f01601f191660200182016040528015611f765781602001600182028036833780820191505090505b509050600082602001820190505b600115611fd9578080600190039150507f3031323334353637383961626364656600000000000000000000000000000000600a86061a8153600a8581611fcd57611fcc6138f4565b5b04945060008503611f84575b819350505050919050565b50505050565b60006001611ff784610a2f565b6120019190613923565b9050600060ce60008481526020019081526020016000205490508181146120e657600060cd60008673ffffffffffffffffffffffffffffffffffffffff1673ffffffffffffffffffffffffffffffffffffffff16815260200190815260200160002060008481526020019081526020016000205490508060cd60008773ffffffffffffffffffffffffffffffffffffffff1673ffffffffffffffffffffffffffffffffffffffff1681526020019081526020016000206000848152602001908152602001600020819055508160ce600083815260200190815260200160002081905550505b60ce60008481526020019081526020016000206000905560cd60008573ffffffffffffffffffffffffffffffffffffffff1673ffffffffffffffffffffffffffffffffffffffff16815260200190815260200160002060008381526020019081526020016000206000905550505050565b600061216283610a2f565b90508160cd60008573ffffffffffffffffffffffffffffffffffffffff1673ffffffffffffffffffffffffffffffffffffffff1681526020019081526020016000206000838152602001908152602001600020819055508060ce600084815260200190815260200160002081905550505050565b600073ffffffffffffffffffffffffffffffffffffffff168273ffffffffffffffffffffffffffffffffffffffff1603612245576040517f08c379a000000000000000000000000000000000000000000000000000000000815260040161223c906139a3565b60405180910390fd5b61224e81611a1a565b1561228e576040517f08c379a000000000000000000000000000000000000000000000000000000000815260040161228590613a0f565b60405180910390fd5b61229c600083836001611a5b565b6122a581611a1a565b156122e5576040517f08c379a00000000000000000000000000000000000000000000000000000000081526004016122dc90613a0f565b60405180910390fd5b6001606860008473ffffffffffffffffffffffffffffffffffffffff1673ffffffffffffffffffffffffffffffffffffffff16815260200190815260200160002060008282540192505081905550816067600083815260200190815260200160002060006101000a81548173ffffffffffffffffffffffffffffffffffffffff021916908373ffffffffffffffffffffffffffffffffffffffff160217905550808273ffffffffffffffffffffffffffffffffffffffff16600073ffffffffffffffffffffffffffffffffffffffff167fddf252ad1be2c89b69c2b068fc378daa952ba7f163c4a11628f55a4df523b3ef60405160405180910390a46123ef600083836001611b5f565b5050565b600080600090507a184f03e93ff9f4daa797ed6e38ed64bf6a1f0100000000000000008310612451577a184f03e93ff9f4daa797ed6e38ed64bf6a1f0100000000000000008381612447576124466138f4565b5b0492506040810190505b6d04ee2d6d415b85acef8100000000831061248e576d04ee2d6d415b85acef81000000008381612484576124836138f4565b5b0492506020810190505b662386f26fc1000083106124bd57662386f26fc1000083816124b3576124b26138f4565b5b0492506010810190505b6305f5e10083106124e6576305f5e10083816124dc576124db6138f4565b5b0492506008810190505b612710831061250b576127108381612501576125006138f4565b5b0492506004810190505b6064831061252e5760648381612524576125236138f4565b5b0492506002810190505b600a831061253d576001810190505b80915050919050565b6040518060800160405280600081526020016000815260200160008152602001600073ffffffffffffffffffffffffffffffffffffffff1681525090565b82805461259090612e87565b90600052602060002090601f0160209004810192826125b257600085556125f9565b82601f106125cb57805160ff19168380011785556125f9565b828001600101855582156125f9579182015b828111156125f85782518255916020019190600101906125dd565b5b509050612606919061264a565b5090565b50805461261690612e87565b6000825580601f106126285750612647565b601f016020900490600052602060002090810190612646919061264a565b5b50565b5b8082111561266357600081600090555060010161264b565b5090565b6000604051905090565b600080fd5b600080fd5b60007fffffffff0000000000000000000000000000000000000000000000000000000082169050919050565b6126b08161267b565b81146126bb57600080fd5b50565b6000813590506126cd816126a7565b92915050565b6000602082840312156126e9576126e8612671565b5b60006126f7848285016126be565b91505092915050565b60008115159050919050565b61271581612700565b82525050565b6000602082019050612730600083018461270c565b92915050565b600081519050919050565b600082825260208201905092915050565b60005b83811015612770578082015181840152602081019050612755565b8381111561277f576000848401525b50505050565b6000601f19601f8301169050919050565b60006127a182612736565b6127ab8185612741565b93506127bb818560208601612752565b6127c481612785565b840191505092915050565b600060208201905081810360008301526127e98184612796565b905092915050565b6000819050919050565b612804816127f1565b811461280f57600080fd5b50565b600081359050612821816127fb565b92915050565b60006020828403121561283d5761283c612671565b5b600061284b84828501612812565b91505092915050565b600073ffffffffffffffffffffffffffffffffffffffff82169050919050565b600061287f82612854565b9050919050565b61288f81612874565b82525050565b60006020820190506128aa6000830184612886565b92915050565b6128b981612874565b81146128c457600080fd5b50565b6000813590506128d6816128b0565b92915050565b600080604083850312156128f3576128f2612671565b5b6000612901858286016128c7565b925050602061291285828601612812565b9150509250929050565b60008060006060848603121561293557612934612671565b5b6000612943868287016128c7565b9350506020612954868287016128c7565b925050604061296586828701612812565b9150509250925092565b600081519050919050565b600082825260208201905092915050565b6000819050602082019050919050565b6129a4816127f1565b82525050565b6129b381612874565b82525050565b6080820160008201516129cf600085018261299b565b5060208201516129e2602085018261299b565b5060408201516129f5604085018261299b565b506060820151612a0860608501826129aa565b50505050565b6000612a1a83836129b9565b60808301905092915050565b6000602082019050919050565b6000612a3e8261296f565b612a48818561297a565b9350612a538361298b565b8060005b83811015612a84578151612a6b8882612a0e565b9750612a7683612a26565b925050600181019050612a57565b5085935050505092915050565b60006020820190508181036000830152612aab8184612a33565b905092915050565b600080fd5b600080fd5b7f4e487b7100000000000000000000000000000000000000000000000000000000600052604160045260246000fd5b612af582612785565b810181811067ffffffffffffffff82111715612b1457612b13612abd565b5b80604052505050565b6000612b27612667565b9050612b338282612aec565b919050565b600067ffffffffffffffff821115612b5357612b52612abd565b5b612b5c82612785565b9050602081019050919050565b82818337600083830152505050565b6000612b8b612b8684612b38565b612b1d565b905082815260208101848484011115612ba757612ba6612ab8565b5b612bb2848285612b69565b509392505050565b600082601f830112612bcf57612bce612ab3565b5b8135612bdf848260208601612b78565b91505092915050565b600060208284031215612bfe57612bfd612671565b5b600082013567ffffffffffffffff811115612c1c57612c1b612676565b5b612c2884828501612bba565b91505092915050565b612c3a816127f1565b82525050565b6000602082019050612c556000830184612c31565b92915050565b600060208284031215612c7157612c70612671565b5b6000612c7f848285016128c7565b91505092915050565b612c9181612700565b8114612c9c57600080fd5b50565b600081359050612cae81612c88565b92915050565b60008060408385031215612ccb57612cca612671565b5b6000612cd9858286016128c7565b9250506020612cea85828601612c9f565b9150509250929050565b600067ffffffffffffffff821115612d0f57612d0e612abd565b5b612d1882612785565b9050602081019050919050565b6000612d38612d3384612cf4565b612b1d565b905082815260208101848484011115612d5457612d53612ab8565b5b612d5f848285612b69565b509392505050565b600082601f830112612d7c57612d7b612ab3565b5b8135612d8c848260208601612d25565b91505092915050565b60008060008060808587031215612daf57612dae612671565b5b6000612dbd878288016128c7565b9450506020612dce878288016128c7565b9350506040612ddf87828801612812565b925050606085013567ffffffffffffffff811115612e0057612dff612676565b5b612e0c87828801612d67565b91505092959194509250565b60008060408385031215612e2f57612e2e612671565b5b6000612e3d858286016128c7565b9250506020612e4e858286016128c7565b9150509250929050565b7f4e487b7100000000000000000000000000000000000000000000000000000000600052602260045260246000fd5b60006002820490506001821680612e9f57607f821691505b602082108103612eb257612eb1612e58565b5b50919050565b7f4552433732313a20617070726f76616c20746f2063757272656e74206f776e6560008201527f7200000000000000000000000000000000000000000000000000000000000000602082015250565b6000612f14602183612741565b9150612f1f82612eb8565b604082019050919050565b60006020820190508181036000830152612f4381612f07565b9050919050565b7f4552433732313a20617070726f76652063616c6c6572206973206e6f7420746f60008201527f6b656e206f776e6572206f7220617070726f76656420666f7220616c6c000000602082015250565b6000612fa6603d83612741565b9150612fb182612f4a565b604082019050919050565b60006020820190508181036000830152612fd581612f99565b9050919050565b7f4552433732313a2063616c6c6572206973206e6f7420746f6b656e206f776e6560008201527f72206f7220617070726f76656400000000000000000000000000000000000000602082015250565b6000613038602d83612741565b915061304382612fdc565b604082019050919050565b600060208201905081810360008301526130678161302b565b9050919050565b7f4e487b7100000000000000000000000000000000000000000000000000000000600052603260045260246000fd5b7f4e487b7100000000000000000000000000000000000000000000000000000000600052601160045260246000fd5b60006130d7826127f1565b91507fffffffffffffffffffffffffffffffffffffffffffffffffffffffffffffffff82036131095761310861309d565b5b600182019050919050565b600081905092915050565b600061312a82612736565b6131348185613114565b9350613144818560208601612752565b80840191505092915050565b600061315c828461311f565b915081905092915050565b7f5468697320746f6b656e55524920686173206265656e20757365640000000000600082015250565b600061319d601b83612741565b91506131a882613167565b602082019050919050565b600060208201905081810360008301526131cc81613190565b9050919050565b60006080820190506131e86000830187612c31565b6131f56020830186612c31565b6132026040830185612c31565b61320f6060830184612886565b95945050505050565b7f4552433732313a20696e76616c696420746f6b656e2049440000000000000000600082015250565b600061324e601883612741565b915061325982613218565b602082019050919050565b6000602082019050818103600083015261327d81613241565b9050919050565b7f4552433732313a2061646472657373207a65726f206973206e6f74206120766160008201527f6c6964206f776e65720000000000000000000000000000000000000000000000602082015250565b60006132e0602983612741565b91506132eb82613284565b604082019050919050565b6000602082019050818103600083015261330f816132d3565b9050919050565b7f496e697469616c697a61626c653a20636f6e747261637420697320616c72656160008201527f647920696e697469616c697a6564000000000000000000000000000000000000602082015250565b6000613372602e83612741565b915061337d82613316565b604082019050919050565b600060208201905081810360008301526133a181613365565b9050919050565b6000819050919050565b600060ff82169050919050565b6000819050919050565b60006133e46133df6133da846133a8565b6133bf565b6133b2565b9050919050565b6133f4816133c9565b82525050565b600060208201905061340f60008301846133eb565b92915050565b7f596f7520617265206e6f74207468652063726561746f72206f6620746869732060008201527f6e6f746500000000000000000000000000000000000000000000000000000000602082015250565b6000613471602483612741565b915061347c82613415565b604082019050919050565b600060208201905081810360008301526134a081613464565b9050919050565b60006134b3828561311f565b91506134bf828461311f565b91508190509392505050565b7f4552433732313a207472616e736665722066726f6d20696e636f72726563742060008201527f6f776e6572000000000000000000000000000000000000000000000000000000602082015250565b6000613527602583612741565b9150613532826134cb565b604082019050919050565b600060208201905081810360008301526135568161351a565b9050919050565b7f4552433732313a207472616e7366657220746f20746865207a65726f2061646460008201527f7265737300000000000000000000000000000000000000000000000000000000602082015250565b60006135b9602483612741565b91506135c48261355d565b604082019050919050565b600060208201905081810360008301526135e8816135ac565b9050919050565b7f45524337323155524953746f726167653a2055524920736574206f66206e6f6e60008201527f6578697374656e7420746f6b656e000000000000000000000000000000000000602082015250565b600061364b602e83612741565b9150613656826135ef565b604082019050919050565b6000602082019050818103600083015261367a8161363e565b9050919050565b7f496e697469616c697a61626c653a20636f6e7472616374206973206e6f74206960008201527f6e697469616c697a696e67000000000000000000000000000000000000000000602082015250565b60006136dd602b83612741565b91506136e882613681565b604082019050919050565b6000602082019050818103600083015261370c816136d0565b9050919050565b7f4552433732313a20617070726f766520746f2063616c6c657200000000000000600082015250565b6000613749601983612741565b915061375482613713565b602082019050919050565b600060208201905081810360008301526137788161373c565b9050919050565b7f4552433732313a207472616e7366657220746f206e6f6e20455243373231526560008201527f63656976657220696d706c656d656e7465720000000000000000000000000000602082015250565b60006137db603283612741565b91506137e68261377f565b604082019050919050565b6000602082019050818103600083015261380a816137ce565b9050919050565b600081519050919050565b600082825260208201905092915050565b600061383882613811565b613842818561381c565b9350613852818560208601612752565b61385b81612785565b840191505092915050565b600060808201905061387b6000830187612886565b6138886020830186612886565b6138956040830185612c31565b81810360608301526138a7818461382d565b905095945050505050565b6000815190506138c1816126a7565b92915050565b6000602082840312156138dd576138dc612671565b5b60006138eb848285016138b2565b91505092915050565b7f4e487b7100000000000000000000000000000000000000000000000000000000600052601260045260246000fd5b600061392e826127f1565b9150613939836127f1565b92508282101561394c5761394b61309d565b5b828203905092915050565b7f4552433732313a206d696e7420746f20746865207a65726f2061646472657373600082015250565b600061398d602083612741565b915061399882613957565b602082019050919050565b600060208201905081810360008301526139bc81613980565b9050919050565b7f4552433732313a20746f6b656e20616c7265616479206d696e74656400000000600082015250565b60006139f9601c83612741565b9150613a04826139c3565b602082019050919050565b60006020820190508181036000830152613a28816139ec565b905091905056fea26469706673582212207532518197ae2ccffd939439c1fa1850b829d51eb8d93aa95273060656c3ba3764736f6c634300080d0033",
  "immutableReferences": {},
  "source": "// SPDX-License-Identifier: MIT\r\n// Tells the Solidity compiler to compile only from v0.8.13 to v0.9.0\r\npragma solidity ^0.8.13;\r\nimport \"@openzeppelin/contracts-upgradeable/token/ERC721/extensions/ERC721URIStorageUpgradeable.sol\";\r\nimport \"@openzeppelin/contracts-upgradeable/proxy/utils/Initializable.sol\";\r\nimport \"@openzeppelin/contracts/utils/Counters.sol\";\r\n// import \"@openzeppelin/contracts/access/Ownable.sol\";\r\n\r\ncontract NoteContract is Initializable, ERC721URIStorageUpgradeable {\r\n    using Counters for Counters.Counter;\r\n    // \r\n    Counters.Counter private _listedItems;\r\n    // tokenId\r\n    Counters.Counter private _tokenIds;\r\n    function initialize() initializer public {\r\n        __ERC721_init(\"web3Note\", \"NC\");\r\n     }\r\n    struct Note {\r\n        uint tokenId;\r\n        uint creatTime;\r\n        uint updateTime;\r\n        address creator;\r\n    }\r\n    // tokenURI, \r\n    mapping(string => bool) private _usedTokenURIs;\r\n    // ,tokenIdnote\r\n    mapping(uint => Note) private _noteList;\r\n    // token\r\n    mapping(address => mapping(uint => uint)) private _ownedTokens;\r\n    // tokenId\r\n    mapping(uint => uint) private _idToOwnerIndex;\r\n    event NoteCreated(uint tokenId, uint creatTime, uint updateTime, address creator);\r\n    // \r\n    function mintNote(string memory tokenURI) public returns (uint) {\r\n        require(!_usedTokenURIs[tokenURI], \"This tokenURI has been used\");\r\n        _tokenIds.increment();\r\n        _listedItems.increment();\r\n\r\n        uint newItemId = _tokenIds.current();\r\n        _safeMint(msg.sender, newItemId);\r\n        _setTokenURI(newItemId, tokenURI);\r\n        _usedTokenURIs[tokenURI] = true;\r\n        _noteList[newItemId] = Note(newItemId,block.timestamp,block.timestamp, msg.sender);\r\n        emit NoteCreated(newItemId, block.timestamp, block.timestamp, msg.sender);\r\n        return newItemId;\r\n    }\r\n    // \r\n    function getOwnedNotes() public view returns (Note[] memory) {\r\n        uint ownedNotesCount = balanceOf(msg.sender);\r\n        Note[] memory items = new Note[](ownedNotesCount);\r\n\r\n        for (uint i = 0; i < ownedNotesCount; i++) {\r\n            uint tokenId = _ownedTokens[msg.sender][i];\r\n            Note storage item = _noteList[tokenId];\r\n            items[i] = item;\r\n        }\r\n        return items;\r\n    }\r\n    // \r\n    function burnTokenId(uint tokenId) public {\r\n        require(msg.sender == _noteList[tokenId].creator, \"You are not the creator of this note\");\r\n        _burn(tokenId);\r\n    }\r\n    function _beforeTokenTransfer(address from, address to, uint tokenId,uint256 batchSize) internal virtual override{\r\n        super._beforeTokenTransfer(from, to, tokenId, batchSize);\r\n        if (from!=address(0)&&from != to) {\r\n            _removeTokenFromOwnerEnumeration(from, tokenId);\r\n        }\r\n        if (to!=address(0)&&to != from) {\r\n            _addTokenToOwnerEnumeration(to, tokenId);\r\n        }\r\n    }\r\n    // tokenId\r\n    function _addTokenToOwnerEnumeration(address to, uint tokenId) private {\r\n        // tonote\r\n        uint length = balanceOf(to);\r\n        // tokenIdtonote\r\n        _ownedTokens[to][length] = tokenId;\r\n        // tokenIdtonoteindex\r\n        _idToOwnerIndex[tokenId] = length;\r\n    }\r\n    // tokenId\r\n    function _removeTokenFromOwnerEnumeration(address from, uint tokenId) private {\r\n        // from\r\n        uint lastTokenIndex = balanceOf(from) - 1;\r\n        // tokenIdfromindex\r\n        uint tokenIndex = _idToOwnerIndex[tokenId];\r\n        /**\r\n         * toukeIdfrom\r\n         * fromtokenId\r\n         */\r\n        if(tokenIndex != lastTokenIndex){\r\n            // fromtokenId\r\n            uint lastTokenId = _ownedTokens[from][lastTokenIndex];\r\n            // fromtokenId\r\n            _ownedTokens[from][tokenIndex] = lastTokenId;\r\n            // TokenIdindex\r\n            _idToOwnerIndex[lastTokenId] = tokenIndex;\r\n        }\r\n        // tokenIdfromNFTindex\r\n        delete _idToOwnerIndex[tokenId];\r\n        // fromNFT\r\n        delete _ownedTokens[from][lastTokenIndex];\r\n    }\r\n}",
  "sourcePath": "C:\\Users\\bkyon\\Documents\\Dapp\\web3Note\\note-contract\\contracts\\NoteContract.sol",
  "compiler": {
    "name": "solc",
    "version": "0.8.13+commit.abaa5c0e.Emscripten.clang"
  },
  "schemaVersion": "3.4.14",
  "updatedAt": "2023-08-29T06:39:55.352Z",
  "networkType": "ethereum",
  "devdoc": {
    "kind": "dev",
    "methods": {
      "approve(address,uint256)": {
        "details": "See {IERC721-approve}."
      },
      "balanceOf(address)": {
        "details": "See {IERC721-balanceOf}."
      },
      "getApproved(uint256)": {
        "details": "See {IERC721-getApproved}."
      },
      "isApprovedForAll(address,address)": {
        "details": "See {IERC721-isApprovedForAll}."
      },
      "name()": {
        "details": "See {IERC721Metadata-name}."
      },
      "ownerOf(uint256)": {
        "details": "See {IERC721-ownerOf}."
      },
      "safeTransferFrom(address,address,uint256)": {
        "details": "See {IERC721-safeTransferFrom}."
      },
      "safeTransferFrom(address,address,uint256,bytes)": {
        "details": "See {IERC721-safeTransferFrom}."
      },
      "setApprovalForAll(address,bool)": {
        "details": "See {IERC721-setApprovalForAll}."
      },
      "supportsInterface(bytes4)": {
        "details": "See {IERC165-supportsInterface}"
      },
      "symbol()": {
        "details": "See {IERC721Metadata-symbol}."
      },
      "tokenURI(uint256)": {
        "details": "See {IERC721Metadata-tokenURI}."
      },
      "transferFrom(address,address,uint256)": {
        "details": "See {IERC721-transferFrom}."
      }
    },
    "version": 1
  },
  "userdoc": {
    "kind": "user",
    "methods": {},
    "version": 1
  }
}