{
  "contractName": "NoteContractV3",
  "abi": [
    {
      "anonymous": false,
      "inputs": [
        {
          "indexed": true,
          "internalType": "address",
          "name": "owner",
          "type": "address"
        },
        {
          "indexed": true,
          "internalType": "address",
          "name": "approved",
          "type": "address"
        },
        {
          "indexed": true,
          "internalType": "uint256",
          "name": "tokenId",
          "type": "uint256"
        }
      ],
      "name": "Approval",
      "type": "event"
    },
    {
      "anonymous": false,
      "inputs": [
        {
          "indexed": true,
          "internalType": "address",
          "name": "owner",
          "type": "address"
        },
        {
          "indexed": true,
          "internalType": "address",
          "name": "operator",
          "type": "address"
        },
        {
          "indexed": false,
          "internalType": "bool",
          "name": "approved",
          "type": "bool"
        }
      ],
      "name": "ApprovalForAll",
      "type": "event"
    },
    {
      "anonymous": false,
      "inputs": [
        {
          "indexed": false,
          "internalType": "uint256",
          "name": "_fromTokenId",
          "type": "uint256"
        },
        {
          "indexed": false,
          "internalType": "uint256",
          "name": "_toTokenId",
          "type": "uint256"
        }
      ],
      "name": "BatchMetadataUpdate",
      "type": "event"
    },
    {
      "anonymous": false,
      "inputs": [
        {
          "indexed": false,
          "internalType": "uint8",
          "name": "version",
          "type": "uint8"
        }
      ],
      "name": "Initialized",
      "type": "event"
    },
    {
      "anonymous": false,
      "inputs": [
        {
          "indexed": false,
          "internalType": "uint256",
          "name": "_tokenId",
          "type": "uint256"
        }
      ],
      "name": "MetadataUpdate",
      "type": "event"
    },
    {
      "anonymous": false,
      "inputs": [
        {
          "indexed": false,
          "internalType": "uint256",
          "name": "tokenId",
          "type": "uint256"
        },
        {
          "indexed": false,
          "internalType": "address",
          "name": "creator",
          "type": "address"
        }
      ],
      "name": "NoteCreated",
      "type": "event"
    },
    {
      "anonymous": false,
      "inputs": [
        {
          "indexed": true,
          "internalType": "address",
          "name": "from",
          "type": "address"
        },
        {
          "indexed": true,
          "internalType": "address",
          "name": "to",
          "type": "address"
        },
        {
          "indexed": true,
          "internalType": "uint256",
          "name": "tokenId",
          "type": "uint256"
        }
      ],
      "name": "Transfer",
      "type": "event"
    },
    {
      "inputs": [
        {
          "internalType": "address",
          "name": "to",
          "type": "address"
        },
        {
          "internalType": "uint256",
          "name": "tokenId",
          "type": "uint256"
        }
      ],
      "name": "approve",
      "outputs": [],
      "stateMutability": "nonpayable",
      "type": "function"
    },
    {
      "inputs": [
        {
          "internalType": "address",
          "name": "owner",
          "type": "address"
        }
      ],
      "name": "balanceOf",
      "outputs": [
        {
          "internalType": "uint256",
          "name": "",
          "type": "uint256"
        }
      ],
      "stateMutability": "view",
      "type": "function",
      "constant": true
    },
    {
      "inputs": [
        {
          "internalType": "uint256",
          "name": "tokenId",
          "type": "uint256"
        }
      ],
      "name": "getApproved",
      "outputs": [
        {
          "internalType": "address",
          "name": "",
          "type": "address"
        }
      ],
      "stateMutability": "view",
      "type": "function",
      "constant": true
    },
    {
      "inputs": [
        {
          "internalType": "address",
          "name": "owner",
          "type": "address"
        },
        {
          "internalType": "address",
          "name": "operator",
          "type": "address"
        }
      ],
      "name": "isApprovedForAll",
      "outputs": [
        {
          "internalType": "bool",
          "name": "",
          "type": "bool"
        }
      ],
      "stateMutability": "view",
      "type": "function",
      "constant": true
    },
    {
      "inputs": [],
      "name": "name",
      "outputs": [
        {
          "internalType": "string",
          "name": "",
          "type": "string"
        }
      ],
      "stateMutability": "view",
      "type": "function",
      "constant": true
    },
    {
      "inputs": [
        {
          "internalType": "uint256",
          "name": "tokenId",
          "type": "uint256"
        }
      ],
      "name": "ownerOf",
      "outputs": [
        {
          "internalType": "address",
          "name": "",
          "type": "address"
        }
      ],
      "stateMutability": "view",
      "type": "function",
      "constant": true
    },
    {
      "inputs": [
        {
          "internalType": "address",
          "name": "from",
          "type": "address"
        },
        {
          "internalType": "address",
          "name": "to",
          "type": "address"
        },
        {
          "internalType": "uint256",
          "name": "tokenId",
          "type": "uint256"
        }
      ],
      "name": "safeTransferFrom",
      "outputs": [],
      "stateMutability": "nonpayable",
      "type": "function"
    },
    {
      "inputs": [
        {
          "internalType": "address",
          "name": "from",
          "type": "address"
        },
        {
          "internalType": "address",
          "name": "to",
          "type": "address"
        },
        {
          "internalType": "uint256",
          "name": "tokenId",
          "type": "uint256"
        },
        {
          "internalType": "bytes",
          "name": "data",
          "type": "bytes"
        }
      ],
      "name": "safeTransferFrom",
      "outputs": [],
      "stateMutability": "nonpayable",
      "type": "function"
    },
    {
      "inputs": [
        {
          "internalType": "address",
          "name": "operator",
          "type": "address"
        },
        {
          "internalType": "bool",
          "name": "approved",
          "type": "bool"
        }
      ],
      "name": "setApprovalForAll",
      "outputs": [],
      "stateMutability": "nonpayable",
      "type": "function"
    },
    {
      "inputs": [
        {
          "internalType": "bytes4",
          "name": "interfaceId",
          "type": "bytes4"
        }
      ],
      "name": "supportsInterface",
      "outputs": [
        {
          "internalType": "bool",
          "name": "",
          "type": "bool"
        }
      ],
      "stateMutability": "view",
      "type": "function",
      "constant": true
    },
    {
      "inputs": [],
      "name": "symbol",
      "outputs": [
        {
          "internalType": "string",
          "name": "",
          "type": "string"
        }
      ],
      "stateMutability": "view",
      "type": "function",
      "constant": true
    },
    {
      "inputs": [
        {
          "internalType": "uint256",
          "name": "tokenId",
          "type": "uint256"
        }
      ],
      "name": "tokenURI",
      "outputs": [
        {
          "internalType": "string",
          "name": "",
          "type": "string"
        }
      ],
      "stateMutability": "view",
      "type": "function",
      "constant": true
    },
    {
      "inputs": [
        {
          "internalType": "address",
          "name": "from",
          "type": "address"
        },
        {
          "internalType": "address",
          "name": "to",
          "type": "address"
        },
        {
          "internalType": "uint256",
          "name": "tokenId",
          "type": "uint256"
        }
      ],
      "name": "transferFrom",
      "outputs": [],
      "stateMutability": "nonpayable",
      "type": "function"
    },
    {
      "inputs": [],
      "name": "initialize",
      "outputs": [],
      "stateMutability": "nonpayable",
      "type": "function"
    },
    {
      "inputs": [
        {
          "internalType": "string",
          "name": "tokenURI",
          "type": "string"
        }
      ],
      "name": "mintNote",
      "outputs": [
        {
          "internalType": "uint256",
          "name": "",
          "type": "uint256"
        }
      ],
      "stateMutability": "nonpayable",
      "type": "function"
    },
    {
      "inputs": [],
      "name": "getOwnedNotes",
      "outputs": [
        {
          "components": [
            {
              "internalType": "uint256",
              "name": "tokenId",
              "type": "uint256"
            },
            {
              "internalType": "address",
              "name": "creator",
              "type": "address"
            }
          ],
          "internalType": "struct NoteContractV3.Note[]",
          "name": "",
          "type": "tuple[]"
        }
      ],
      "stateMutability": "view",
      "type": "function",
      "constant": true
    },
    {
      "inputs": [
        {
          "internalType": "uint256",
          "name": "tokenId",
          "type": "uint256"
        }
      ],
      "name": "burnTokenId",
      "outputs": [],
      "stateMutability": "nonpayable",
      "type": "function"
    },
    {
      "inputs": [],
      "name": "getOwnedNotesNum",
      "outputs": [
        {
          "internalType": "uint256",
          "name": "",
          "type": "uint256"
        }
      ],
      "stateMutability": "view",
      "type": "function",
      "constant": true
    }
  ],
  "bytecode": "0x608060405234801561001057600080fd5b506139ee806100206000396000f3fe608060405234801561001057600080fd5b50600436106101165760003560e01c806370a08231116100a2578063b88d4fde11610071578063b88d4fde146102df578063c32d88ff146102fb578063c87b56dd14610317578063e445ae0214610347578063e985e9c51461036557610116565b806370a082311461026b5780638129fc1c1461029b57806395d89b41146102a5578063a22cb465146102c357610116565b806323b872dd116100e957806323b872dd146101b55780632d731b69146101d15780632f2f7c4d146101ef57806342842e0e1461021f5780636352211e1461023b57610116565b806301ffc9a71461011b57806306fdde031461014b578063081812fc14610169578063095ea7b314610199575b600080fd5b6101356004803603810190610130919061269e565b610395565b60405161014291906126e6565b60405180910390f35b6101536103f6565b604051610160919061279a565b60405180910390f35b610183600480360381019061017e91906127f2565b610488565b6040516101909190612860565b60405180910390f35b6101b360048036038101906101ae91906128a7565b6104ce565b005b6101cf60048036038101906101ca91906128e7565b6105e5565b005b6101d9610645565b6040516101e69190612a36565b60405180910390f35b61020960048036038101906102049190612b8d565b6107cb565b6040516102169190612be5565b60405180910390f35b610239600480360381019061023491906128e7565b61097a565b005b610255600480360381019061025091906127f2565b61099a565b6040516102629190612860565b60405180910390f35b61028560048036038101906102809190612c00565b610a20565b6040516102929190612be5565b60405180910390f35b6102a3610ad7565b005b6102ad610c81565b6040516102ba919061279a565b60405180910390f35b6102dd60048036038101906102d89190612c59565b610d13565b005b6102f960048036038101906102f49190612d3a565b610d29565b005b610315600480360381019061031091906127f2565b610d8b565b005b610331600480360381019061032c91906127f2565b610e13565b60405161033e919061279a565b60405180910390f35b61034f610f25565b60405161035c9190612be5565b60405180910390f35b61037f600480360381019061037a9190612dbd565b610f35565b60405161038c91906126e6565b60405180910390f35b6000634906490660e01b7bffffffffffffffffffffffffffffffffffffffffffffffffffffffff1916827bffffffffffffffffffffffffffffffffffffffffffffffffffffffff191614806103ef57506103ee82610fc9565b5b9050919050565b60606065805461040590612e2c565b80601f016020809104026020016040519081016040528092919081815260200182805461043190612e2c565b801561047e5780601f106104535761010080835404028352916020019161047e565b820191906000526020600020905b81548152906001019060200180831161046157829003601f168201915b5050505050905090565b6000610493826110ab565b6069600083815260200190815260200160002060009054906101000a900473ffffffffffffffffffffffffffffffffffffffff169050919050565b60006104d98261099a565b90508073ffffffffffffffffffffffffffffffffffffffff168373ffffffffffffffffffffffffffffffffffffffff1603610549576040517f08c379a000000000000000000000000000000000000000000000000000000000815260040161054090612ecf565b60405180910390fd5b8073ffffffffffffffffffffffffffffffffffffffff166105686110f6565b73ffffffffffffffffffffffffffffffffffffffff1614806105975750610596816105916110f6565b610f35565b5b6105d6576040517f08c379a00000000000000000000000000000000000000000000000000000000081526004016105cd90612f61565b60405180910390fd5b6105e083836110fe565b505050565b6105f66105f06110f6565b826111b7565b610635576040517f08c379a000000000000000000000000000000000000000000000000000000000815260040161062c90612ff3565b60405180910390fd5b61064083838361124c565b505050565b6060600061065233610a20565b905060008167ffffffffffffffff8111156106705761066f612a62565b5b6040519080825280602002602001820160405280156106a957816020015b61069661251f565b81526020019060019003908161068e5790505b50905060005b828110156107c257600060cd60003373ffffffffffffffffffffffffffffffffffffffff1673ffffffffffffffffffffffffffffffffffffffff1681526020019081526020016000206000838152602001908152602001600020549050600060cc6000838152602001908152602001600020905080604051806040016040529081600082015481526020016001820160009054906101000a900473ffffffffffffffffffffffffffffffffffffffff1673ffffffffffffffffffffffffffffffffffffffff1673ffffffffffffffffffffffffffffffffffffffff16815250508484815181106107a2576107a1613013565b5b6020026020010181905250505080806107ba90613071565b9150506106af565b50809250505090565b600060cb826040516107dd91906130f5565b908152602001604051809103902060009054906101000a900460ff1615610839576040517f08c379a000000000000000000000000000000000000000000000000000000000815260040161083090613158565b60405180910390fd5b61084360ca611545565b61084d60c9611545565b600061085960ca61155b565b90506108653382611569565b61086f8184611587565b600160cb8460405161088191906130f5565b908152602001604051809103902060006101000a81548160ff02191690831515021790555060405180604001604052808281526020013373ffffffffffffffffffffffffffffffffffffffff1681525060cc60008381526020019081526020016000206000820151816000015560208201518160010160006101000a81548173ffffffffffffffffffffffffffffffffffffffff021916908373ffffffffffffffffffffffffffffffffffffffff1602179055509050507f1d39a71a40c14bee233655b3e373b6dfe3d42c9cf199fb03578b4aee93d5cbc18133604051610969929190613178565b60405180910390a180915050919050565b61099583838360405180602001604052806000815250610d29565b505050565b6000806109a683611632565b9050600073ffffffffffffffffffffffffffffffffffffffff168173ffffffffffffffffffffffffffffffffffffffff1603610a17576040517f08c379a0000000000000000000000000000000000000000000000000000000008152600401610a0e906131ed565b60405180910390fd5b80915050919050565b60008073ffffffffffffffffffffffffffffffffffffffff168273ffffffffffffffffffffffffffffffffffffffff1603610a90576040517f08c379a0000000000000000000000000000000000000000000000000000000008152600401610a879061327f565b60405180910390fd5b606860008373ffffffffffffffffffffffffffffffffffffffff1673ffffffffffffffffffffffffffffffffffffffff168152602001908152602001600020549050919050565b60008060019054906101000a900460ff16159050808015610b085750600160008054906101000a900460ff1660ff16105b80610b355750610b173061166f565b158015610b345750600160008054906101000a900460ff1660ff16145b5b610b74576040517f08c379a0000000000000000000000000000000000000000000000000000000008152600401610b6b90613311565b60405180910390fd5b60016000806101000a81548160ff021916908360ff1602179055508015610bb1576001600060016101000a81548160ff0219169083151502179055505b610c256040518060400160405280600881526020017f776562334e6f74650000000000000000000000000000000000000000000000008152506040518060400160405280600281526020017f4e43000000000000000000000000000000000000000000000000000000000000815250611692565b8015610c7e5760008060016101000a81548160ff0219169083151502179055507f7f26b83ff96e1f2b6a682f133852f6798a09c465da95921460cefb38474024986001604051610c759190613383565b60405180910390a15b50565b606060668054610c9090612e2c565b80601f0160208091040260200160405190810160405280929190818152602001828054610cbc90612e2c565b8015610d095780601f10610cde57610100808354040283529160200191610d09565b820191906000526020600020905b815481529060010190602001808311610cec57829003601f168201915b5050505050905090565b610d25610d1e6110f6565b83836116ef565b5050565b610d3a610d346110f6565b836111b7565b610d79576040517f08c379a0000000000000000000000000000000000000000000000000000000008152600401610d7090612ff3565b60405180910390fd5b610d858484848461185b565b50505050565b6000610d968261099a565b90508073ffffffffffffffffffffffffffffffffffffffff163373ffffffffffffffffffffffffffffffffffffffff1614610e06576040517f08c379a0000000000000000000000000000000000000000000000000000000008152600401610dfd90613410565b60405180910390fd5b610e0f826118b7565b5050565b6060610e1e826110ab565b6000609760008481526020019081526020016000208054610e3e90612e2c565b80601f0160208091040260200160405190810160405280929190818152602001828054610e6a90612e2c565b8015610eb75780601f10610e8c57610100808354040283529160200191610eb7565b820191906000526020600020905b815481529060010190602001808311610e9a57829003601f168201915b505050505090506000610ec861190a565b90506000815103610edd578192505050610f20565b600082511115610f12578082604051602001610efa929190613430565b60405160208183030381529060405292505050610f20565b610f1b84611921565b925050505b919050565b6000610f3033610a20565b905090565b6000606a60008473ffffffffffffffffffffffffffffffffffffffff1673ffffffffffffffffffffffffffffffffffffffff16815260200190815260200160002060008373ffffffffffffffffffffffffffffffffffffffff1673ffffffffffffffffffffffffffffffffffffffff16815260200190815260200160002060009054906101000a900460ff16905092915050565b60007f80ac58cd000000000000000000000000000000000000000000000000000000007bffffffffffffffffffffffffffffffffffffffffffffffffffffffff1916827bffffffffffffffffffffffffffffffffffffffffffffffffffffffff1916148061109457507f5b5e139f000000000000000000000000000000000000000000000000000000007bffffffffffffffffffffffffffffffffffffffffffffffffffffffff1916827bffffffffffffffffffffffffffffffffffffffffffffffffffffffff1916145b806110a457506110a382611989565b5b9050919050565b6110b4816119f3565b6110f3576040517f08c379a00000000000000000000000000000000000000000000000000000000081526004016110ea906131ed565b60405180910390fd5b50565b600033905090565b816069600083815260200190815260200160002060006101000a81548173ffffffffffffffffffffffffffffffffffffffff021916908373ffffffffffffffffffffffffffffffffffffffff160217905550808273ffffffffffffffffffffffffffffffffffffffff166111718361099a565b73ffffffffffffffffffffffffffffffffffffffff167f8c5be1e5ebec7d5bd14f71427d1e84f3dd0314c0f7b2291e5b200ac8c7c3b92560405160405180910390a45050565b6000806111c38361099a565b90508073ffffffffffffffffffffffffffffffffffffffff168473ffffffffffffffffffffffffffffffffffffffff16148061120557506112048185610f35565b5b8061124357508373ffffffffffffffffffffffffffffffffffffffff1661122b84610488565b73ffffffffffffffffffffffffffffffffffffffff16145b91505092915050565b8273ffffffffffffffffffffffffffffffffffffffff1661126c8261099a565b73ffffffffffffffffffffffffffffffffffffffff16146112c2576040517f08c379a00000000000000000000000000000000000000000000000000000000081526004016112b9906134c6565b60405180910390fd5b600073ffffffffffffffffffffffffffffffffffffffff168273ffffffffffffffffffffffffffffffffffffffff1603611331576040517f08c379a000000000000000000000000000000000000000000000000000000000815260040161132890613558565b60405180910390fd5b61133e8383836001611a34565b8273ffffffffffffffffffffffffffffffffffffffff1661135e8261099a565b73ffffffffffffffffffffffffffffffffffffffff16146113b4576040517f08c379a00000000000000000000000000000000000000000000000000000000081526004016113ab906134c6565b60405180910390fd5b6069600082815260200190815260200160002060006101000a81549073ffffffffffffffffffffffffffffffffffffffff02191690556001606860008573ffffffffffffffffffffffffffffffffffffffff1673ffffffffffffffffffffffffffffffffffffffff168152602001908152602001600020600082825403925050819055506001606860008473ffffffffffffffffffffffffffffffffffffffff1673ffffffffffffffffffffffffffffffffffffffff16815260200190815260200160002060008282540192505081905550816067600083815260200190815260200160002060006101000a81548173ffffffffffffffffffffffffffffffffffffffff021916908373ffffffffffffffffffffffffffffffffffffffff160217905550808273ffffffffffffffffffffffffffffffffffffffff168473ffffffffffffffffffffffffffffffffffffffff167fddf252ad1be2c89b69c2b068fc378daa952ba7f163c4a11628f55a4df523b3ef60405160405180910390a46115408383836001611b38565b505050565b6001816000016000828254019250508190555050565b600081600001549050919050565b611583828260405180602001604052806000815250611b3e565b5050565b611590826119f3565b6115cf576040517f08c379a00000000000000000000000000000000000000000000000000000000081526004016115c6906135ea565b60405180910390fd5b806097600084815260200190815260200160002090805190602001906115f692919061254f565b507ff8e1a15aba9398e019f0b49df1a4fde98ee17ae345cb5f6b5e2c27f5033e8ce7826040516116269190612be5565b60405180910390a15050565b60006067600083815260200190815260200160002060009054906101000a900473ffffffffffffffffffffffffffffffffffffffff169050919050565b6000808273ffffffffffffffffffffffffffffffffffffffff163b119050919050565b600060019054906101000a900460ff166116e1576040517f08c379a00000000000000000000000000000000000000000000000000000000081526004016116d89061367c565b60405180910390fd5b6116eb8282611b99565b5050565b8173ffffffffffffffffffffffffffffffffffffffff168373ffffffffffffffffffffffffffffffffffffffff160361175d576040517f08c379a0000000000000000000000000000000000000000000000000000000008152600401611754906136e8565b60405180910390fd5b80606a60008573ffffffffffffffffffffffffffffffffffffffff1673ffffffffffffffffffffffffffffffffffffffff16815260200190815260200160002060008473ffffffffffffffffffffffffffffffffffffffff1673ffffffffffffffffffffffffffffffffffffffff16815260200190815260200160002060006101000a81548160ff0219169083151502179055508173ffffffffffffffffffffffffffffffffffffffff168373ffffffffffffffffffffffffffffffffffffffff167f17307eab39ab6107e8899845ad3d59bd9653f200f220920489ca2b5937696c318360405161184e91906126e6565b60405180910390a3505050565b61186684848461124c565b61187284848484611c1a565b6118b1576040517f08c379a00000000000000000000000000000000000000000000000000000000081526004016118a89061377a565b60405180910390fd5b50505050565b6118c081611da1565b60006097600083815260200190815260200160002080546118e090612e2c565b9050146119075760976000828152602001908152602001600020600061190691906125d5565b5b50565b606060405180602001604052806000815250905090565b606061192c826110ab565b600061193661190a565b905060008151116119565760405180602001604052806000815250611981565b8061196084611eef565b604051602001611971929190613430565b6040516020818303038152906040525b915050919050565b60007f01ffc9a7000000000000000000000000000000000000000000000000000000007bffffffffffffffffffffffffffffffffffffffffffffffffffffffff1916827bffffffffffffffffffffffffffffffffffffffffffffffffffffffff1916149050919050565b60008073ffffffffffffffffffffffffffffffffffffffff16611a1583611632565b73ffffffffffffffffffffffffffffffffffffffff1614159050919050565b611a4084848484611fbd565b600073ffffffffffffffffffffffffffffffffffffffff168473ffffffffffffffffffffffffffffffffffffffff1614158015611aa957508273ffffffffffffffffffffffffffffffffffffffff168473ffffffffffffffffffffffffffffffffffffffff1614155b15611ab957611ab88483611fc3565b5b600073ffffffffffffffffffffffffffffffffffffffff168373ffffffffffffffffffffffffffffffffffffffff1614158015611b2257508373ffffffffffffffffffffffffffffffffffffffff168373ffffffffffffffffffffffffffffffffffffffff1614155b15611b3257611b318383612130565b5b50505050565b50505050565b611b4883836121af565b611b556000848484611c1a565b611b94576040517f08c379a0000000000000000000000000000000000000000000000000000000008152600401611b8b9061377a565b60405180910390fd5b505050565b600060019054906101000a900460ff16611be8576040517f08c379a0000000000000000000000000000000000000000000000000000000008152600401611bdf9061367c565b60405180910390fd5b8160659080519060200190611bfe92919061254f565b508060669080519060200190611c1592919061254f565b505050565b6000611c3b8473ffffffffffffffffffffffffffffffffffffffff1661166f565b15611d94578373ffffffffffffffffffffffffffffffffffffffff1663150b7a02611c646110f6565b8786866040518563ffffffff1660e01b8152600401611c8694939291906137ef565b6020604051808303816000875af1925050508015611cc257506040513d601f19601f82011682018060405250810190611cbf9190613850565b60015b611d44573d8060008114611cf2576040519150601f19603f3d011682016040523d82523d6000602084013e611cf7565b606091505b506000815103611d3c576040517f08c379a0000000000000000000000000000000000000000000000000000000008152600401611d339061377a565b60405180910390fd5b805181602001fd5b63150b7a0260e01b7bffffffffffffffffffffffffffffffffffffffffffffffffffffffff1916817bffffffffffffffffffffffffffffffffffffffffffffffffffffffff191614915050611d99565b600190505b949350505050565b6000611dac8261099a565b9050611dbc816000846001611a34565b611dc58261099a565b90506069600083815260200190815260200160002060006101000a81549073ffffffffffffffffffffffffffffffffffffffff02191690556001606860008373ffffffffffffffffffffffffffffffffffffffff1673ffffffffffffffffffffffffffffffffffffffff168152602001908152602001600020600082825403925050819055506067600083815260200190815260200160002060006101000a81549073ffffffffffffffffffffffffffffffffffffffff021916905581600073ffffffffffffffffffffffffffffffffffffffff168273ffffffffffffffffffffffffffffffffffffffff167fddf252ad1be2c89b69c2b068fc378daa952ba7f163c4a11628f55a4df523b3ef60405160405180910390a4611eeb816000846001611b38565b5050565b606060006001611efe846123cc565b01905060008167ffffffffffffffff811115611f1d57611f1c612a62565b5b6040519080825280601f01601f191660200182016040528015611f4f5781602001600182028036833780820191505090505b509050600082602001820190505b600115611fb2578080600190039150507f3031323334353637383961626364656600000000000000000000000000000000600a86061a8153600a8581611fa657611fa561387d565b5b04945060008503611f5d575b819350505050919050565b50505050565b60006001611fd084610a20565b611fda91906138ac565b9050600060ce60008481526020019081526020016000205490508181146120bf57600060cd60008673ffffffffffffffffffffffffffffffffffffffff1673ffffffffffffffffffffffffffffffffffffffff16815260200190815260200160002060008481526020019081526020016000205490508060cd60008773ffffffffffffffffffffffffffffffffffffffff1673ffffffffffffffffffffffffffffffffffffffff1681526020019081526020016000206000848152602001908152602001600020819055508160ce600083815260200190815260200160002081905550505b60ce60008481526020019081526020016000206000905560cd60008573ffffffffffffffffffffffffffffffffffffffff1673ffffffffffffffffffffffffffffffffffffffff16815260200190815260200160002060008381526020019081526020016000206000905550505050565b600061213b83610a20565b90508160cd60008573ffffffffffffffffffffffffffffffffffffffff1673ffffffffffffffffffffffffffffffffffffffff1681526020019081526020016000206000838152602001908152602001600020819055508060ce600084815260200190815260200160002081905550505050565b600073ffffffffffffffffffffffffffffffffffffffff168273ffffffffffffffffffffffffffffffffffffffff160361221e576040517f08c379a00000000000000000000000000000000000000000000000000000000081526004016122159061392c565b60405180910390fd5b612227816119f3565b15612267576040517f08c379a000000000000000000000000000000000000000000000000000000000815260040161225e90613998565b60405180910390fd5b612275600083836001611a34565b61227e816119f3565b156122be576040517f08c379a00000000000000000000000000000000000000000000000000000000081526004016122b590613998565b60405180910390fd5b6001606860008473ffffffffffffffffffffffffffffffffffffffff1673ffffffffffffffffffffffffffffffffffffffff16815260200190815260200160002060008282540192505081905550816067600083815260200190815260200160002060006101000a81548173ffffffffffffffffffffffffffffffffffffffff021916908373ffffffffffffffffffffffffffffffffffffffff160217905550808273ffffffffffffffffffffffffffffffffffffffff16600073ffffffffffffffffffffffffffffffffffffffff167fddf252ad1be2c89b69c2b068fc378daa952ba7f163c4a11628f55a4df523b3ef60405160405180910390a46123c8600083836001611b38565b5050565b600080600090507a184f03e93ff9f4daa797ed6e38ed64bf6a1f010000000000000000831061242a577a184f03e93ff9f4daa797ed6e38ed64bf6a1f01000000000000000083816124205761241f61387d565b5b0492506040810190505b6d04ee2d6d415b85acef81000000008310612467576d04ee2d6d415b85acef8100000000838161245d5761245c61387d565b5b0492506020810190505b662386f26fc10000831061249657662386f26fc10000838161248c5761248b61387d565b5b0492506010810190505b6305f5e10083106124bf576305f5e10083816124b5576124b461387d565b5b0492506008810190505b61271083106124e45761271083816124da576124d961387d565b5b0492506004810190505b6064831061250757606483816124fd576124fc61387d565b5b0492506002810190505b600a8310612516576001810190505b80915050919050565b604051806040016040528060008152602001600073ffffffffffffffffffffffffffffffffffffffff1681525090565b82805461255b90612e2c565b90600052602060002090601f01602090048101928261257d57600085556125c4565b82601f1061259657805160ff19168380011785556125c4565b828001600101855582156125c4579182015b828111156125c35782518255916020019190600101906125a8565b5b5090506125d19190612615565b5090565b5080546125e190612e2c565b6000825580601f106125f35750612612565b601f0160209004906000526020600020908101906126119190612615565b5b50565b5b8082111561262e576000816000905550600101612616565b5090565b6000604051905090565b600080fd5b600080fd5b60007fffffffff0000000000000000000000000000000000000000000000000000000082169050919050565b61267b81612646565b811461268657600080fd5b50565b60008135905061269881612672565b92915050565b6000602082840312156126b4576126b361263c565b5b60006126c284828501612689565b91505092915050565b60008115159050919050565b6126e0816126cb565b82525050565b60006020820190506126fb60008301846126d7565b92915050565b600081519050919050565b600082825260208201905092915050565b60005b8381101561273b578082015181840152602081019050612720565b8381111561274a576000848401525b50505050565b6000601f19601f8301169050919050565b600061276c82612701565b612776818561270c565b935061278681856020860161271d565b61278f81612750565b840191505092915050565b600060208201905081810360008301526127b48184612761565b905092915050565b6000819050919050565b6127cf816127bc565b81146127da57600080fd5b50565b6000813590506127ec816127c6565b92915050565b6000602082840312156128085761280761263c565b5b6000612816848285016127dd565b91505092915050565b600073ffffffffffffffffffffffffffffffffffffffff82169050919050565b600061284a8261281f565b9050919050565b61285a8161283f565b82525050565b60006020820190506128756000830184612851565b92915050565b6128848161283f565b811461288f57600080fd5b50565b6000813590506128a18161287b565b92915050565b600080604083850312156128be576128bd61263c565b5b60006128cc85828601612892565b92505060206128dd858286016127dd565b9150509250929050565b600080600060608486031215612900576128ff61263c565b5b600061290e86828701612892565b935050602061291f86828701612892565b9250506040612930868287016127dd565b9150509250925092565b600081519050919050565b600082825260208201905092915050565b6000819050602082019050919050565b61296f816127bc565b82525050565b61297e8161283f565b82525050565b60408201600082015161299a6000850182612966565b5060208201516129ad6020850182612975565b50505050565b60006129bf8383612984565b60408301905092915050565b6000602082019050919050565b60006129e38261293a565b6129ed8185612945565b93506129f883612956565b8060005b83811015612a29578151612a1088826129b3565b9750612a1b836129cb565b9250506001810190506129fc565b5085935050505092915050565b60006020820190508181036000830152612a5081846129d8565b905092915050565b600080fd5b600080fd5b7f4e487b7100000000000000000000000000000000000000000000000000000000600052604160045260246000fd5b612a9a82612750565b810181811067ffffffffffffffff82111715612ab957612ab8612a62565b5b80604052505050565b6000612acc612632565b9050612ad88282612a91565b919050565b600067ffffffffffffffff821115612af857612af7612a62565b5b612b0182612750565b9050602081019050919050565b82818337600083830152505050565b6000612b30612b2b84612add565b612ac2565b905082815260208101848484011115612b4c57612b4b612a5d565b5b612b57848285612b0e565b509392505050565b600082601f830112612b7457612b73612a58565b5b8135612b84848260208601612b1d565b91505092915050565b600060208284031215612ba357612ba261263c565b5b600082013567ffffffffffffffff811115612bc157612bc0612641565b5b612bcd84828501612b5f565b91505092915050565b612bdf816127bc565b82525050565b6000602082019050612bfa6000830184612bd6565b92915050565b600060208284031215612c1657612c1561263c565b5b6000612c2484828501612892565b91505092915050565b612c36816126cb565b8114612c4157600080fd5b50565b600081359050612c5381612c2d565b92915050565b60008060408385031215612c7057612c6f61263c565b5b6000612c7e85828601612892565b9250506020612c8f85828601612c44565b9150509250929050565b600067ffffffffffffffff821115612cb457612cb3612a62565b5b612cbd82612750565b9050602081019050919050565b6000612cdd612cd884612c99565b612ac2565b905082815260208101848484011115612cf957612cf8612a5d565b5b612d04848285612b0e565b509392505050565b600082601f830112612d2157612d20612a58565b5b8135612d31848260208601612cca565b91505092915050565b60008060008060808587031215612d5457612d5361263c565b5b6000612d6287828801612892565b9450506020612d7387828801612892565b9350506040612d84878288016127dd565b925050606085013567ffffffffffffffff811115612da557612da4612641565b5b612db187828801612d0c565b91505092959194509250565b60008060408385031215612dd457612dd361263c565b5b6000612de285828601612892565b9250506020612df385828601612892565b9150509250929050565b7f4e487b7100000000000000000000000000000000000000000000000000000000600052602260045260246000fd5b60006002820490506001821680612e4457607f821691505b602082108103612e5757612e56612dfd565b5b50919050565b7f4552433732313a20617070726f76616c20746f2063757272656e74206f776e6560008201527f7200000000000000000000000000000000000000000000000000000000000000602082015250565b6000612eb960218361270c565b9150612ec482612e5d565b604082019050919050565b60006020820190508181036000830152612ee881612eac565b9050919050565b7f4552433732313a20617070726f76652063616c6c6572206973206e6f7420746f60008201527f6b656e206f776e6572206f7220617070726f76656420666f7220616c6c000000602082015250565b6000612f4b603d8361270c565b9150612f5682612eef565b604082019050919050565b60006020820190508181036000830152612f7a81612f3e565b9050919050565b7f4552433732313a2063616c6c6572206973206e6f7420746f6b656e206f776e6560008201527f72206f7220617070726f76656400000000000000000000000000000000000000602082015250565b6000612fdd602d8361270c565b9150612fe882612f81565b604082019050919050565b6000602082019050818103600083015261300c81612fd0565b9050919050565b7f4e487b7100000000000000000000000000000000000000000000000000000000600052603260045260246000fd5b7f4e487b7100000000000000000000000000000000000000000000000000000000600052601160045260246000fd5b600061307c826127bc565b91507fffffffffffffffffffffffffffffffffffffffffffffffffffffffffffffffff82036130ae576130ad613042565b5b600182019050919050565b600081905092915050565b60006130cf82612701565b6130d981856130b9565b93506130e981856020860161271d565b80840191505092915050565b600061310182846130c4565b915081905092915050565b7f5468697320746f6b656e55524920686173206265656e20757365640000000000600082015250565b6000613142601b8361270c565b915061314d8261310c565b602082019050919050565b6000602082019050818103600083015261317181613135565b9050919050565b600060408201905061318d6000830185612bd6565b61319a6020830184612851565b9392505050565b7f4552433732313a20696e76616c696420746f6b656e2049440000000000000000600082015250565b60006131d760188361270c565b91506131e2826131a1565b602082019050919050565b60006020820190508181036000830152613206816131ca565b9050919050565b7f4552433732313a2061646472657373207a65726f206973206e6f74206120766160008201527f6c6964206f776e65720000000000000000000000000000000000000000000000602082015250565b600061326960298361270c565b91506132748261320d565b604082019050919050565b600060208201905081810360008301526132988161325c565b9050919050565b7f496e697469616c697a61626c653a20636f6e747261637420697320616c72656160008201527f647920696e697469616c697a6564000000000000000000000000000000000000602082015250565b60006132fb602e8361270c565b91506133068261329f565b604082019050919050565b6000602082019050818103600083015261332a816132ee565b9050919050565b6000819050919050565b600060ff82169050919050565b6000819050919050565b600061336d61336861336384613331565b613348565b61333b565b9050919050565b61337d81613352565b82525050565b60006020820190506133986000830184613374565b92915050565b7f596f7520617265206e6f74207468652063726561746f72206f6620746869732060008201527f6e6f746500000000000000000000000000000000000000000000000000000000602082015250565b60006133fa60248361270c565b91506134058261339e565b604082019050919050565b60006020820190508181036000830152613429816133ed565b9050919050565b600061343c82856130c4565b915061344882846130c4565b91508190509392505050565b7f4552433732313a207472616e736665722066726f6d20696e636f72726563742060008201527f6f776e6572000000000000000000000000000000000000000000000000000000602082015250565b60006134b060258361270c565b91506134bb82613454565b604082019050919050565b600060208201905081810360008301526134df816134a3565b9050919050565b7f4552433732313a207472616e7366657220746f20746865207a65726f2061646460008201527f7265737300000000000000000000000000000000000000000000000000000000602082015250565b600061354260248361270c565b915061354d826134e6565b604082019050919050565b6000602082019050818103600083015261357181613535565b9050919050565b7f45524337323155524953746f726167653a2055524920736574206f66206e6f6e60008201527f6578697374656e7420746f6b656e000000000000000000000000000000000000602082015250565b60006135d4602e8361270c565b91506135df82613578565b604082019050919050565b60006020820190508181036000830152613603816135c7565b9050919050565b7f496e697469616c697a61626c653a20636f6e7472616374206973206e6f74206960008201527f6e697469616c697a696e67000000000000000000000000000000000000000000602082015250565b6000613666602b8361270c565b91506136718261360a565b604082019050919050565b6000602082019050818103600083015261369581613659565b9050919050565b7f4552433732313a20617070726f766520746f2063616c6c657200000000000000600082015250565b60006136d260198361270c565b91506136dd8261369c565b602082019050919050565b60006020820190508181036000830152613701816136c5565b9050919050565b7f4552433732313a207472616e7366657220746f206e6f6e20455243373231526560008201527f63656976657220696d706c656d656e7465720000000000000000000000000000602082015250565b600061376460328361270c565b915061376f82613708565b604082019050919050565b6000602082019050818103600083015261379381613757565b9050919050565b600081519050919050565b600082825260208201905092915050565b60006137c18261379a565b6137cb81856137a5565b93506137db81856020860161271d565b6137e481612750565b840191505092915050565b60006080820190506138046000830187612851565b6138116020830186612851565b61381e6040830185612bd6565b818103606083015261383081846137b6565b905095945050505050565b60008151905061384a81612672565b92915050565b6000602082840312156138665761386561263c565b5b60006138748482850161383b565b91505092915050565b7f4e487b7100000000000000000000000000000000000000000000000000000000600052601260045260246000fd5b60006138b7826127bc565b91506138c2836127bc565b9250828210156138d5576138d4613042565b5b828203905092915050565b7f4552433732313a206d696e7420746f20746865207a65726f2061646472657373600082015250565b600061391660208361270c565b9150613921826138e0565b602082019050919050565b6000602082019050818103600083015261394581613909565b9050919050565b7f4552433732313a20746f6b656e20616c7265616479206d696e74656400000000600082015250565b6000613982601c8361270c565b915061398d8261394c565b602082019050919050565b600060208201905081810360008301526139b181613975565b905091905056fea2646970667358221220ece7421074f88e764485c8c0c26f66374f32cbd243a8e66c5c1f316f06cb1e8464736f6c634300080d0033",
  "immutableReferences": {},
  "source": "// SPDX-License-Identifier: MIT\r\n// Tells the Solidity compiler to compile only from v0.8.13 to v0.9.0\r\npragma solidity ^0.8.13;\r\nimport \"@openzeppelin/contracts-upgradeable/token/ERC721/extensions/ERC721URIStorageUpgradeable.sol\";\r\nimport \"@openzeppelin/contracts-upgradeable/proxy/utils/Initializable.sol\";\r\nimport \"@openzeppelin/contracts/utils/Counters.sol\";\r\n// import \"@openzeppelin/contracts/access/Ownable.sol\";\r\n\r\ncontract NoteContractV3 is Initializable, ERC721URIStorageUpgradeable {\r\n    using Counters for Counters.Counter;\r\n    // \r\n    Counters.Counter private _listedItems;\r\n    // tokenId\r\n    Counters.Counter private _tokenIds;\r\n    function initialize() initializer public {\r\n        __ERC721_init(\"web3Note\", \"NC\");\r\n     }\r\n    struct Note {\r\n        uint tokenId;\r\n        address creator;\r\n    }\r\n    // tokenURI, \r\n    mapping(string => bool) private _usedTokenURIs;\r\n    // ,tokenIdnote\r\n    mapping(uint => Note) private _noteList;\r\n    // token\r\n    mapping(address => mapping(uint => uint)) private _ownedTokens;\r\n    // tokenId\r\n    mapping(uint => uint) private _idToOwnerIndex;\r\n    event NoteCreated(uint tokenId, address creator);\r\n    // \r\n    function mintNote(string memory tokenURI) public returns (uint) {\r\n        require(!_usedTokenURIs[tokenURI], \"This tokenURI has been used\");\r\n        _tokenIds.increment();\r\n        _listedItems.increment();\r\n\r\n        uint newItemId = _tokenIds.current();\r\n        _safeMint(msg.sender, newItemId);\r\n        _setTokenURI(newItemId, tokenURI);\r\n        _usedTokenURIs[tokenURI] = true;\r\n        _noteList[newItemId] = Note(newItemId, msg.sender);\r\n        emit NoteCreated(newItemId, msg.sender);\r\n        return newItemId;\r\n    }\r\n\r\n    // \r\n    function getOwnedNotes() public view returns (Note[] memory) {\r\n        uint ownedNotesCount = balanceOf(msg.sender);\r\n        Note[] memory items = new Note[](ownedNotesCount);\r\n\r\n        for (uint i = 0; i < ownedNotesCount; i++) {\r\n            uint tokenId = _ownedTokens[msg.sender][i];\r\n            Note storage item = _noteList[tokenId];\r\n            items[i] = item;\r\n        }\r\n        return items;\r\n    }\r\n    // \r\n    function burnTokenId(uint tokenId) public {\r\n        address owner = ownerOf(tokenId);\r\n        require(msg.sender == owner, \"You are not the creator of this note\");\r\n        _burn(tokenId);\r\n    }\r\n    function _beforeTokenTransfer(address from, address to, uint tokenId,uint256 batchSize) internal virtual override{\r\n        super._beforeTokenTransfer(from, to, tokenId, batchSize);\r\n        if (from!=address(0)&&from != to) {\r\n            _removeTokenFromOwnerEnumeration(from, tokenId);\r\n        }\r\n        if (to!=address(0)&&to != from) {\r\n            _addTokenToOwnerEnumeration(to, tokenId);\r\n        }\r\n    }\r\n    // tokenId\r\n    function _addTokenToOwnerEnumeration(address to, uint tokenId) private {\r\n        // tonote\r\n        uint length = balanceOf(to);\r\n        // tokenIdtonote\r\n        _ownedTokens[to][length] = tokenId;\r\n        // tokenIdtonoteindex\r\n        _idToOwnerIndex[tokenId] = length;\r\n    }\r\n    // tokenId\r\n    function _removeTokenFromOwnerEnumeration(address from, uint tokenId) private {\r\n        // from\r\n        uint lastTokenIndex = balanceOf(from) - 1;\r\n        // tokenIdfromindex\r\n        uint tokenIndex = _idToOwnerIndex[tokenId];\r\n        /**\r\n         * toukeIdfrom\r\n         * fromtokenId\r\n         */\r\n        if(tokenIndex != lastTokenIndex){\r\n            // fromtokenId\r\n            uint lastTokenId = _ownedTokens[from][lastTokenIndex];\r\n            // fromtokenId\r\n            _ownedTokens[from][tokenIndex] = lastTokenId;\r\n            // TokenIdindex\r\n            _idToOwnerIndex[lastTokenId] = tokenIndex;\r\n        }\r\n        // tokenIdfromNFTindex\r\n        delete _idToOwnerIndex[tokenId];\r\n        // fromNFT\r\n        delete _ownedTokens[from][lastTokenIndex];\r\n    }\r\n    // \r\n    function getOwnedNotesNum() view public returns (uint){\r\n        return balanceOf(msg.sender);\r\n    }\r\n}",
  "sourcePath": "C:\\Users\\bkyon\\Documents\\Dapp\\web3Note\\note-contract\\contracts\\NoteContractV3.sol",
  "compiler": {
    "name": "solc",
    "version": "0.8.13+commit.abaa5c0e.Emscripten.clang"
  },
  "schemaVersion": "3.4.14",
  "updatedAt": "2023-08-30T06:51:43.462Z",
  "networkType": "ethereum",
  "devdoc": {
    "kind": "dev",
    "methods": {
      "approve(address,uint256)": {
        "details": "See {IERC721-approve}."
      },
      "balanceOf(address)": {
        "details": "See {IERC721-balanceOf}."
      },
      "getApproved(uint256)": {
        "details": "See {IERC721-getApproved}."
      },
      "isApprovedForAll(address,address)": {
        "details": "See {IERC721-isApprovedForAll}."
      },
      "name()": {
        "details": "See {IERC721Metadata-name}."
      },
      "ownerOf(uint256)": {
        "details": "See {IERC721-ownerOf}."
      },
      "safeTransferFrom(address,address,uint256)": {
        "details": "See {IERC721-safeTransferFrom}."
      },
      "safeTransferFrom(address,address,uint256,bytes)": {
        "details": "See {IERC721-safeTransferFrom}."
      },
      "setApprovalForAll(address,bool)": {
        "details": "See {IERC721-setApprovalForAll}."
      },
      "supportsInterface(bytes4)": {
        "details": "See {IERC165-supportsInterface}"
      },
      "symbol()": {
        "details": "See {IERC721Metadata-symbol}."
      },
      "tokenURI(uint256)": {
        "details": "See {IERC721Metadata-tokenURI}."
      },
      "transferFrom(address,address,uint256)": {
        "details": "See {IERC721-transferFrom}."
      }
    },
    "version": 1
  },
  "userdoc": {
    "kind": "user",
    "methods": {},
    "version": 1
  }
}