{
  "contractName": "NoteContract",
  "abi": [
    {
      "inputs": [],
      "stateMutability": "nonpayable",
      "type": "constructor"
    },
    {
      "anonymous": false,
      "inputs": [
        {
          "indexed": true,
          "internalType": "address",
          "name": "owner",
          "type": "address"
        },
        {
          "indexed": true,
          "internalType": "address",
          "name": "approved",
          "type": "address"
        },
        {
          "indexed": true,
          "internalType": "uint256",
          "name": "tokenId",
          "type": "uint256"
        }
      ],
      "name": "Approval",
      "type": "event"
    },
    {
      "anonymous": false,
      "inputs": [
        {
          "indexed": true,
          "internalType": "address",
          "name": "owner",
          "type": "address"
        },
        {
          "indexed": true,
          "internalType": "address",
          "name": "operator",
          "type": "address"
        },
        {
          "indexed": false,
          "internalType": "bool",
          "name": "approved",
          "type": "bool"
        }
      ],
      "name": "ApprovalForAll",
      "type": "event"
    },
    {
      "anonymous": false,
      "inputs": [
        {
          "indexed": false,
          "internalType": "uint256",
          "name": "_fromTokenId",
          "type": "uint256"
        },
        {
          "indexed": false,
          "internalType": "uint256",
          "name": "_toTokenId",
          "type": "uint256"
        }
      ],
      "name": "BatchMetadataUpdate",
      "type": "event"
    },
    {
      "anonymous": false,
      "inputs": [
        {
          "indexed": false,
          "internalType": "uint256",
          "name": "_tokenId",
          "type": "uint256"
        }
      ],
      "name": "MetadataUpdate",
      "type": "event"
    },
    {
      "anonymous": false,
      "inputs": [
        {
          "indexed": false,
          "internalType": "uint256",
          "name": "tokenId",
          "type": "uint256"
        },
        {
          "indexed": false,
          "internalType": "uint256",
          "name": "creatTime",
          "type": "uint256"
        },
        {
          "indexed": false,
          "internalType": "uint256",
          "name": "updateTime",
          "type": "uint256"
        },
        {
          "indexed": false,
          "internalType": "address",
          "name": "creator",
          "type": "address"
        }
      ],
      "name": "NoteCreated",
      "type": "event"
    },
    {
      "anonymous": false,
      "inputs": [
        {
          "indexed": true,
          "internalType": "address",
          "name": "previousOwner",
          "type": "address"
        },
        {
          "indexed": true,
          "internalType": "address",
          "name": "newOwner",
          "type": "address"
        }
      ],
      "name": "OwnershipTransferred",
      "type": "event"
    },
    {
      "anonymous": false,
      "inputs": [
        {
          "indexed": true,
          "internalType": "address",
          "name": "from",
          "type": "address"
        },
        {
          "indexed": true,
          "internalType": "address",
          "name": "to",
          "type": "address"
        },
        {
          "indexed": true,
          "internalType": "uint256",
          "name": "tokenId",
          "type": "uint256"
        }
      ],
      "name": "Transfer",
      "type": "event"
    },
    {
      "inputs": [
        {
          "internalType": "address",
          "name": "to",
          "type": "address"
        },
        {
          "internalType": "uint256",
          "name": "tokenId",
          "type": "uint256"
        }
      ],
      "name": "approve",
      "outputs": [],
      "stateMutability": "nonpayable",
      "type": "function"
    },
    {
      "inputs": [
        {
          "internalType": "address",
          "name": "owner",
          "type": "address"
        }
      ],
      "name": "balanceOf",
      "outputs": [
        {
          "internalType": "uint256",
          "name": "",
          "type": "uint256"
        }
      ],
      "stateMutability": "view",
      "type": "function"
    },
    {
      "inputs": [
        {
          "internalType": "uint256",
          "name": "tokenId",
          "type": "uint256"
        }
      ],
      "name": "getApproved",
      "outputs": [
        {
          "internalType": "address",
          "name": "",
          "type": "address"
        }
      ],
      "stateMutability": "view",
      "type": "function"
    },
    {
      "inputs": [
        {
          "internalType": "address",
          "name": "owner",
          "type": "address"
        },
        {
          "internalType": "address",
          "name": "operator",
          "type": "address"
        }
      ],
      "name": "isApprovedForAll",
      "outputs": [
        {
          "internalType": "bool",
          "name": "",
          "type": "bool"
        }
      ],
      "stateMutability": "view",
      "type": "function"
    },
    {
      "inputs": [],
      "name": "name",
      "outputs": [
        {
          "internalType": "string",
          "name": "",
          "type": "string"
        }
      ],
      "stateMutability": "view",
      "type": "function"
    },
    {
      "inputs": [],
      "name": "owner",
      "outputs": [
        {
          "internalType": "address",
          "name": "",
          "type": "address"
        }
      ],
      "stateMutability": "view",
      "type": "function"
    },
    {
      "inputs": [
        {
          "internalType": "uint256",
          "name": "tokenId",
          "type": "uint256"
        }
      ],
      "name": "ownerOf",
      "outputs": [
        {
          "internalType": "address",
          "name": "",
          "type": "address"
        }
      ],
      "stateMutability": "view",
      "type": "function"
    },
    {
      "inputs": [],
      "name": "renounceOwnership",
      "outputs": [],
      "stateMutability": "nonpayable",
      "type": "function"
    },
    {
      "inputs": [
        {
          "internalType": "address",
          "name": "from",
          "type": "address"
        },
        {
          "internalType": "address",
          "name": "to",
          "type": "address"
        },
        {
          "internalType": "uint256",
          "name": "tokenId",
          "type": "uint256"
        }
      ],
      "name": "safeTransferFrom",
      "outputs": [],
      "stateMutability": "nonpayable",
      "type": "function"
    },
    {
      "inputs": [
        {
          "internalType": "address",
          "name": "from",
          "type": "address"
        },
        {
          "internalType": "address",
          "name": "to",
          "type": "address"
        },
        {
          "internalType": "uint256",
          "name": "tokenId",
          "type": "uint256"
        },
        {
          "internalType": "bytes",
          "name": "data",
          "type": "bytes"
        }
      ],
      "name": "safeTransferFrom",
      "outputs": [],
      "stateMutability": "nonpayable",
      "type": "function"
    },
    {
      "inputs": [
        {
          "internalType": "address",
          "name": "operator",
          "type": "address"
        },
        {
          "internalType": "bool",
          "name": "approved",
          "type": "bool"
        }
      ],
      "name": "setApprovalForAll",
      "outputs": [],
      "stateMutability": "nonpayable",
      "type": "function"
    },
    {
      "inputs": [
        {
          "internalType": "bytes4",
          "name": "interfaceId",
          "type": "bytes4"
        }
      ],
      "name": "supportsInterface",
      "outputs": [
        {
          "internalType": "bool",
          "name": "",
          "type": "bool"
        }
      ],
      "stateMutability": "view",
      "type": "function"
    },
    {
      "inputs": [],
      "name": "symbol",
      "outputs": [
        {
          "internalType": "string",
          "name": "",
          "type": "string"
        }
      ],
      "stateMutability": "view",
      "type": "function"
    },
    {
      "inputs": [
        {
          "internalType": "uint256",
          "name": "tokenId",
          "type": "uint256"
        }
      ],
      "name": "tokenURI",
      "outputs": [
        {
          "internalType": "string",
          "name": "",
          "type": "string"
        }
      ],
      "stateMutability": "view",
      "type": "function"
    },
    {
      "inputs": [
        {
          "internalType": "address",
          "name": "from",
          "type": "address"
        },
        {
          "internalType": "address",
          "name": "to",
          "type": "address"
        },
        {
          "internalType": "uint256",
          "name": "tokenId",
          "type": "uint256"
        }
      ],
      "name": "transferFrom",
      "outputs": [],
      "stateMutability": "nonpayable",
      "type": "function"
    },
    {
      "inputs": [
        {
          "internalType": "address",
          "name": "newOwner",
          "type": "address"
        }
      ],
      "name": "transferOwnership",
      "outputs": [],
      "stateMutability": "nonpayable",
      "type": "function"
    },
    {
      "inputs": [
        {
          "internalType": "string",
          "name": "tokenURI",
          "type": "string"
        }
      ],
      "name": "mintNote",
      "outputs": [
        {
          "internalType": "uint256",
          "name": "",
          "type": "uint256"
        }
      ],
      "stateMutability": "nonpayable",
      "type": "function"
    }
  ],
  "bytecode": "0x608060405234801562000010575f80fd5b506040518060400160405280600c81526020017f4e6f7465436f6e747261637400000000000000000000000000000000000000008152506040518060400160405280600281526020017f4e43000000000000000000000000000000000000000000000000000000000000815250815f90816200008d9190620003f6565b5080600190816200009f9190620003f6565b505050620000c2620000b6620000c860201b60201c565b620000cf60201b60201c565b620004da565b5f33905090565b5f60075f9054906101000a900473ffffffffffffffffffffffffffffffffffffffff1690508160075f6101000a81548173ffffffffffffffffffffffffffffffffffffffff021916908373ffffffffffffffffffffffffffffffffffffffff1602179055508173ffffffffffffffffffffffffffffffffffffffff168173ffffffffffffffffffffffffffffffffffffffff167f8be0079c531659141344cd1fd0a4f28419497f9722a3daafe3b4186f6b6457e060405160405180910390a35050565b5f81519050919050565b7f4e487b71000000000000000000000000000000000000000000000000000000005f52604160045260245ffd5b7f4e487b71000000000000000000000000000000000000000000000000000000005f52602260045260245ffd5b5f60028204905060018216806200020e57607f821691505b602082108103620002245762000223620001c9565b5b50919050565b5f819050815f5260205f209050919050565b5f6020601f8301049050919050565b5f82821b905092915050565b5f60088302620002887fffffffffffffffffffffffffffffffffffffffffffffffffffffffffffffffff826200024b565b6200029486836200024b565b95508019841693508086168417925050509392505050565b5f819050919050565b5f819050919050565b5f620002de620002d8620002d284620002ac565b620002b5565b620002ac565b9050919050565b5f819050919050565b620002f983620002be565b620003116200030882620002e5565b84845462000257565b825550505050565b5f90565b6200032762000319565b62000334818484620002ee565b505050565b5b818110156200035b576200034f5f826200031d565b6001810190506200033a565b5050565b601f821115620003aa5762000374816200022a565b6200037f846200023c565b810160208510156200038f578190505b620003a76200039e856200023c565b83018262000339565b50505b505050565b5f82821c905092915050565b5f620003cc5f1984600802620003af565b1980831691505092915050565b5f620003e68383620003bb565b9150826002028217905092915050565b620004018262000192565b67ffffffffffffffff8111156200041d576200041c6200019c565b5b620004298254620001f6565b620004368282856200035f565b5f60209050601f8311600181146200046c575f841562000457578287015190505b620004638582620003d9565b865550620004d2565b601f1984166200047c866200022a565b5f5b82811015620004a5578489015182556001820191506020850194506020810190506200047e565b86831015620004c55784890151620004c1601f891682620003bb565b8355505b6001600288020188555050505b505050505050565b61300080620004e85f395ff3fe608060405234801561000f575f80fd5b5060043610610109575f3560e01c806370a08231116100a0578063a22cb4651161006f578063a22cb465146102b5578063b88d4fde146102d1578063c87b56dd146102ed578063e985e9c51461031d578063f2fde38b1461034d57610109565b806370a082311461023f578063715018a61461026f5780638da5cb5b1461027957806395d89b411461029757610109565b806323b872dd116100dc57806323b872dd146101a75780632f2f7c4d146101c357806342842e0e146101f35780636352211e1461020f57610109565b806301ffc9a71461010d57806306fdde031461013d578063081812fc1461015b578063095ea7b31461018b575b5f80fd5b61012760048036038101906101229190611dd5565b610369565b6040516101349190611e1a565b60405180910390f35b6101456103c9565b6040516101529190611ebd565b60405180910390f35b61017560048036038101906101709190611f10565b610458565b6040516101829190611f7a565b60405180910390f35b6101a560048036038101906101a09190611fbd565b61049a565b005b6101c160048036038101906101bc9190611ffb565b6105b0565b005b6101dd60048036038101906101d89190612177565b610610565b6040516101ea91906121cd565b60405180910390f35b61020d60048036038101906102089190611ffb565b6107da565b005b61022960048036038101906102249190611f10565b6107f9565b6040516102369190611f7a565b60405180910390f35b610259600480360381019061025491906121e6565b61087d565b60405161026691906121cd565b60405180910390f35b610277610931565b005b610281610944565b60405161028e9190611f7a565b60405180910390f35b61029f61096c565b6040516102ac9190611ebd565b60405180910390f35b6102cf60048036038101906102ca919061223b565b6109fc565b005b6102eb60048036038101906102e69190612317565b610a12565b005b61030760048036038101906103029190611f10565b610a74565b6040516103149190611ebd565b60405180910390f35b61033760048036038101906103329190612397565b610b7e565b6040516103449190611e1a565b60405180910390f35b610367600480360381019061036291906121e6565b610c0c565b005b5f634906490660e01b7bffffffffffffffffffffffffffffffffffffffffffffffffffffffff1916827bffffffffffffffffffffffffffffffffffffffffffffffffffffffff191614806103c257506103c182610c8e565b5b9050919050565b60605f80546103d790612402565b80601f016020809104026020016040519081016040528092919081815260200182805461040390612402565b801561044e5780601f106104255761010080835404028352916020019161044e565b820191905f5260205f20905b81548152906001019060200180831161043157829003601f168201915b5050505050905090565b5f61046282610d6f565b60045f8381526020019081526020015f205f9054906101000a900473ffffffffffffffffffffffffffffffffffffffff169050919050565b5f6104a4826107f9565b90508073ffffffffffffffffffffffffffffffffffffffff168373ffffffffffffffffffffffffffffffffffffffff1603610514576040517f08c379a000000000000000000000000000000000000000000000000000000000815260040161050b906124a2565b60405180910390fd5b8073ffffffffffffffffffffffffffffffffffffffff16610533610dba565b73ffffffffffffffffffffffffffffffffffffffff16148061056257506105618161055c610dba565b610b7e565b5b6105a1576040517f08c379a000000000000000000000000000000000000000000000000000000000815260040161059890612530565b60405180910390fd5b6105ab8383610dc1565b505050565b6105c16105bb610dba565b82610e77565b610600576040517f08c379a00000000000000000000000000000000000000000000000000000000081526004016105f7906125be565b60405180910390fd5b61060b838383610f0b565b505050565b5f600a826040516106219190612616565b90815260200160405180910390205f9054906101000a900460ff161561067c576040517f08c379a000000000000000000000000000000000000000000000000000000000815260040161067390612676565b60405180910390fd5b61068660096111f7565b61069060086111f7565b5f61069b600961120b565b90506106a73382611217565b6106b18184611234565b6001600a846040516106c39190612616565b90815260200160405180910390205f6101000a81548160ff02191690831515021790555060405180608001604052808281526020014281526020014281526020013373ffffffffffffffffffffffffffffffffffffffff16815250600b5f8381526020019081526020015f205f820151815f015560208201518160010155604082015181600201556060820151816003015f6101000a81548173ffffffffffffffffffffffffffffffffffffffff021916908373ffffffffffffffffffffffffffffffffffffffff1602179055509050507fef8b88058411cf304900117439159724f0f88143b9aca4880877f1b8baa69a55814242336040516107c99493929190612694565b60405180910390a180915050919050565b6107f483838360405180602001604052805f815250610a12565b505050565b5f80610804836112d6565b90505f73ffffffffffffffffffffffffffffffffffffffff168173ffffffffffffffffffffffffffffffffffffffff1603610874576040517f08c379a000000000000000000000000000000000000000000000000000000000815260040161086b90612721565b60405180910390fd5b80915050919050565b5f8073ffffffffffffffffffffffffffffffffffffffff168273ffffffffffffffffffffffffffffffffffffffff16036108ec576040517f08c379a00000000000000000000000000000000000000000000000000000000081526004016108e3906127af565b60405180910390fd5b60035f8373ffffffffffffffffffffffffffffffffffffffff1673ffffffffffffffffffffffffffffffffffffffff1681526020019081526020015f20549050919050565b61093961130f565b6109425f61138d565b565b5f60075f9054906101000a900473ffffffffffffffffffffffffffffffffffffffff16905090565b60606001805461097b90612402565b80601f01602080910402602001604051908101604052809291908181526020018280546109a790612402565b80156109f25780601f106109c9576101008083540402835291602001916109f2565b820191905f5260205f20905b8154815290600101906020018083116109d557829003601f168201915b5050505050905090565b610a0e610a07610dba565b8383611450565b5050565b610a23610a1d610dba565b83610e77565b610a62576040517f08c379a0000000000000000000000000000000000000000000000000000000008152600401610a59906125be565b60405180910390fd5b610a6e848484846115b7565b50505050565b6060610a7f82610d6f565b5f60065f8481526020019081526020015f208054610a9c90612402565b80601f0160208091040260200160405190810160405280929190818152602001828054610ac890612402565b8015610b135780601f10610aea57610100808354040283529160200191610b13565b820191905f5260205f20905b815481529060010190602001808311610af657829003601f168201915b505050505090505f610b23611613565b90505f815103610b37578192505050610b79565b5f82511115610b6b578082604051602001610b539291906127cd565b60405160208183030381529060405292505050610b79565b610b7484611629565b925050505b919050565b5f60055f8473ffffffffffffffffffffffffffffffffffffffff1673ffffffffffffffffffffffffffffffffffffffff1681526020019081526020015f205f8373ffffffffffffffffffffffffffffffffffffffff1673ffffffffffffffffffffffffffffffffffffffff1681526020019081526020015f205f9054906101000a900460ff16905092915050565b610c1461130f565b5f73ffffffffffffffffffffffffffffffffffffffff168173ffffffffffffffffffffffffffffffffffffffff1603610c82576040517f08c379a0000000000000000000000000000000000000000000000000000000008152600401610c7990612860565b60405180910390fd5b610c8b8161138d565b50565b5f7f80ac58cd000000000000000000000000000000000000000000000000000000007bffffffffffffffffffffffffffffffffffffffffffffffffffffffff1916827bffffffffffffffffffffffffffffffffffffffffffffffffffffffff19161480610d5857507f5b5e139f000000000000000000000000000000000000000000000000000000007bffffffffffffffffffffffffffffffffffffffffffffffffffffffff1916827bffffffffffffffffffffffffffffffffffffffffffffffffffffffff1916145b80610d685750610d678261168e565b5b9050919050565b610d78816116f7565b610db7576040517f08c379a0000000000000000000000000000000000000000000000000000000008152600401610dae90612721565b60405180910390fd5b50565b5f33905090565b8160045f8381526020019081526020015f205f6101000a81548173ffffffffffffffffffffffffffffffffffffffff021916908373ffffffffffffffffffffffffffffffffffffffff160217905550808273ffffffffffffffffffffffffffffffffffffffff16610e31836107f9565b73ffffffffffffffffffffffffffffffffffffffff167f8c5be1e5ebec7d5bd14f71427d1e84f3dd0314c0f7b2291e5b200ac8c7c3b92560405160405180910390a45050565b5f80610e82836107f9565b90508073ffffffffffffffffffffffffffffffffffffffff168473ffffffffffffffffffffffffffffffffffffffff161480610ec45750610ec38185610b7e565b5b80610f0257508373ffffffffffffffffffffffffffffffffffffffff16610eea84610458565b73ffffffffffffffffffffffffffffffffffffffff16145b91505092915050565b8273ffffffffffffffffffffffffffffffffffffffff16610f2b826107f9565b73ffffffffffffffffffffffffffffffffffffffff1614610f81576040517f08c379a0000000000000000000000000000000000000000000000000000000008152600401610f78906128ee565b60405180910390fd5b5f73ffffffffffffffffffffffffffffffffffffffff168273ffffffffffffffffffffffffffffffffffffffff1603610fef576040517f08c379a0000000000000000000000000000000000000000000000000000000008152600401610fe69061297c565b60405180910390fd5b610ffc8383836001611737565b8273ffffffffffffffffffffffffffffffffffffffff1661101c826107f9565b73ffffffffffffffffffffffffffffffffffffffff1614611072576040517f08c379a0000000000000000000000000000000000000000000000000000000008152600401611069906128ee565b60405180910390fd5b60045f8281526020019081526020015f205f6101000a81549073ffffffffffffffffffffffffffffffffffffffff0219169055600160035f8573ffffffffffffffffffffffffffffffffffffffff1673ffffffffffffffffffffffffffffffffffffffff1681526020019081526020015f205f8282540392505081905550600160035f8473ffffffffffffffffffffffffffffffffffffffff1673ffffffffffffffffffffffffffffffffffffffff1681526020019081526020015f205f82825401925050819055508160025f8381526020019081526020015f205f6101000a81548173ffffffffffffffffffffffffffffffffffffffff021916908373ffffffffffffffffffffffffffffffffffffffff160217905550808273ffffffffffffffffffffffffffffffffffffffff168473ffffffffffffffffffffffffffffffffffffffff167fddf252ad1be2c89b69c2b068fc378daa952ba7f163c4a11628f55a4df523b3ef60405160405180910390a46111f2838383600161173d565b505050565b6001815f015f828254019250508190555050565b5f815f01549050919050565b611230828260405180602001604052805f815250611743565b5050565b61123d826116f7565b61127c576040517f08c379a000000000000000000000000000000000000000000000000000000000815260040161127390612a0a565b60405180910390fd5b8060065f8481526020019081526020015f20908161129a9190612bc5565b507ff8e1a15aba9398e019f0b49df1a4fde98ee17ae345cb5f6b5e2c27f5033e8ce7826040516112ca91906121cd565b60405180910390a15050565b5f60025f8381526020019081526020015f205f9054906101000a900473ffffffffffffffffffffffffffffffffffffffff169050919050565b611317610dba565b73ffffffffffffffffffffffffffffffffffffffff16611335610944565b73ffffffffffffffffffffffffffffffffffffffff161461138b576040517f08c379a000000000000000000000000000000000000000000000000000000000815260040161138290612cde565b60405180910390fd5b565b5f60075f9054906101000a900473ffffffffffffffffffffffffffffffffffffffff1690508160075f6101000a81548173ffffffffffffffffffffffffffffffffffffffff021916908373ffffffffffffffffffffffffffffffffffffffff1602179055508173ffffffffffffffffffffffffffffffffffffffff168173ffffffffffffffffffffffffffffffffffffffff167f8be0079c531659141344cd1fd0a4f28419497f9722a3daafe3b4186f6b6457e060405160405180910390a35050565b8173ffffffffffffffffffffffffffffffffffffffff168373ffffffffffffffffffffffffffffffffffffffff16036114be576040517f08c379a00000000000000000000000000000000000000000000000000000000081526004016114b590612d46565b60405180910390fd5b8060055f8573ffffffffffffffffffffffffffffffffffffffff1673ffffffffffffffffffffffffffffffffffffffff1681526020019081526020015f205f8473ffffffffffffffffffffffffffffffffffffffff1673ffffffffffffffffffffffffffffffffffffffff1681526020019081526020015f205f6101000a81548160ff0219169083151502179055508173ffffffffffffffffffffffffffffffffffffffff168373ffffffffffffffffffffffffffffffffffffffff167f17307eab39ab6107e8899845ad3d59bd9653f200f220920489ca2b5937696c31836040516115aa9190611e1a565b60405180910390a3505050565b6115c2848484610f0b565b6115ce8484848461179d565b61160d576040517f08c379a000000000000000000000000000000000000000000000000000000000815260040161160490612dd4565b60405180910390fd5b50505050565b606060405180602001604052805f815250905090565b606061163482610d6f565b5f61163d611613565b90505f81511161165b5760405180602001604052805f815250611686565b806116658461191f565b6040516020016116769291906127cd565b6040516020818303038152906040525b915050919050565b5f7f01ffc9a7000000000000000000000000000000000000000000000000000000007bffffffffffffffffffffffffffffffffffffffffffffffffffffffff1916827bffffffffffffffffffffffffffffffffffffffffffffffffffffffff1916149050919050565b5f8073ffffffffffffffffffffffffffffffffffffffff16611718836112d6565b73ffffffffffffffffffffffffffffffffffffffff1614159050919050565b50505050565b50505050565b61174d83836119e9565b6117595f84848461179d565b611798576040517f08c379a000000000000000000000000000000000000000000000000000000000815260040161178f90612dd4565b60405180910390fd5b505050565b5f6117bd8473ffffffffffffffffffffffffffffffffffffffff16611bfc565b15611912578373ffffffffffffffffffffffffffffffffffffffff1663150b7a026117e6610dba565b8786866040518563ffffffff1660e01b81526004016118089493929190612e44565b6020604051808303815f875af192505050801561184357506040513d601f19601f820116820180604052508101906118409190612ea2565b60015b6118c2573d805f8114611871576040519150601f19603f3d011682016040523d82523d5f602084013e611876565b606091505b505f8151036118ba576040517f08c379a00000000000000000000000000000000000000000000000000000000081526004016118b190612dd4565b60405180910390fd5b805181602001fd5b63150b7a0260e01b7bffffffffffffffffffffffffffffffffffffffffffffffffffffffff1916817bffffffffffffffffffffffffffffffffffffffffffffffffffffffff191614915050611917565b600190505b949350505050565b60605f600161192d84611c1e565b0190505f8167ffffffffffffffff81111561194b5761194a612053565b5b6040519080825280601f01601f19166020018201604052801561197d5781602001600182028036833780820191505090505b5090505f82602001820190505b6001156119de578080600190039150507f3031323334353637383961626364656600000000000000000000000000000000600a86061a8153600a85816119d3576119d2612ecd565b5b0494505f850361198a575b819350505050919050565b5f73ffffffffffffffffffffffffffffffffffffffff168273ffffffffffffffffffffffffffffffffffffffff1603611a57576040517f08c379a0000000000000000000000000000000000000000000000000000000008152600401611a4e90612f44565b60405180910390fd5b611a60816116f7565b15611aa0576040517f08c379a0000000000000000000000000000000000000000000000000000000008152600401611a9790612fac565b60405180910390fd5b611aad5f83836001611737565b611ab6816116f7565b15611af6576040517f08c379a0000000000000000000000000000000000000000000000000000000008152600401611aed90612fac565b60405180910390fd5b600160035f8473ffffffffffffffffffffffffffffffffffffffff1673ffffffffffffffffffffffffffffffffffffffff1681526020019081526020015f205f82825401925050819055508160025f8381526020019081526020015f205f6101000a81548173ffffffffffffffffffffffffffffffffffffffff021916908373ffffffffffffffffffffffffffffffffffffffff160217905550808273ffffffffffffffffffffffffffffffffffffffff165f73ffffffffffffffffffffffffffffffffffffffff167fddf252ad1be2c89b69c2b068fc378daa952ba7f163c4a11628f55a4df523b3ef60405160405180910390a4611bf85f8383600161173d565b5050565b5f808273ffffffffffffffffffffffffffffffffffffffff163b119050919050565b5f805f90507a184f03e93ff9f4daa797ed6e38ed64bf6a1f0100000000000000008310611c7a577a184f03e93ff9f4daa797ed6e38ed64bf6a1f0100000000000000008381611c7057611c6f612ecd565b5b0492506040810190505b6d04ee2d6d415b85acef81000000008310611cb7576d04ee2d6d415b85acef81000000008381611cad57611cac612ecd565b5b0492506020810190505b662386f26fc100008310611ce657662386f26fc100008381611cdc57611cdb612ecd565b5b0492506010810190505b6305f5e1008310611d0f576305f5e1008381611d0557611d04612ecd565b5b0492506008810190505b6127108310611d34576127108381611d2a57611d29612ecd565b5b0492506004810190505b60648310611d575760648381611d4d57611d4c612ecd565b5b0492506002810190505b600a8310611d66576001810190505b80915050919050565b5f604051905090565b5f80fd5b5f80fd5b5f7fffffffff0000000000000000000000000000000000000000000000000000000082169050919050565b611db481611d80565b8114611dbe575f80fd5b50565b5f81359050611dcf81611dab565b92915050565b5f60208284031215611dea57611de9611d78565b5b5f611df784828501611dc1565b91505092915050565b5f8115159050919050565b611e1481611e00565b82525050565b5f602082019050611e2d5f830184611e0b565b92915050565b5f81519050919050565b5f82825260208201905092915050565b5f5b83811015611e6a578082015181840152602081019050611e4f565b5f8484015250505050565b5f601f19601f8301169050919050565b5f611e8f82611e33565b611e998185611e3d565b9350611ea9818560208601611e4d565b611eb281611e75565b840191505092915050565b5f6020820190508181035f830152611ed58184611e85565b905092915050565b5f819050919050565b611eef81611edd565b8114611ef9575f80fd5b50565b5f81359050611f0a81611ee6565b92915050565b5f60208284031215611f2557611f24611d78565b5b5f611f3284828501611efc565b91505092915050565b5f73ffffffffffffffffffffffffffffffffffffffff82169050919050565b5f611f6482611f3b565b9050919050565b611f7481611f5a565b82525050565b5f602082019050611f8d5f830184611f6b565b92915050565b611f9c81611f5a565b8114611fa6575f80fd5b50565b5f81359050611fb781611f93565b92915050565b5f8060408385031215611fd357611fd2611d78565b5b5f611fe085828601611fa9565b9250506020611ff185828601611efc565b9150509250929050565b5f805f6060848603121561201257612011611d78565b5b5f61201f86828701611fa9565b935050602061203086828701611fa9565b925050604061204186828701611efc565b9150509250925092565b5f80fd5b5f80fd5b7f4e487b71000000000000000000000000000000000000000000000000000000005f52604160045260245ffd5b61208982611e75565b810181811067ffffffffffffffff821117156120a8576120a7612053565b5b80604052505050565b5f6120ba611d6f565b90506120c68282612080565b919050565b5f67ffffffffffffffff8211156120e5576120e4612053565b5b6120ee82611e75565b9050602081019050919050565b828183375f83830152505050565b5f61211b612116846120cb565b6120b1565b9050828152602081018484840111156121375761213661204f565b5b6121428482856120fb565b509392505050565b5f82601f83011261215e5761215d61204b565b5b813561216e848260208601612109565b91505092915050565b5f6020828403121561218c5761218b611d78565b5b5f82013567ffffffffffffffff8111156121a9576121a8611d7c565b5b6121b58482850161214a565b91505092915050565b6121c781611edd565b82525050565b5f6020820190506121e05f8301846121be565b92915050565b5f602082840312156121fb576121fa611d78565b5b5f61220884828501611fa9565b91505092915050565b61221a81611e00565b8114612224575f80fd5b50565b5f8135905061223581612211565b92915050565b5f806040838503121561225157612250611d78565b5b5f61225e85828601611fa9565b925050602061226f85828601612227565b9150509250929050565b5f67ffffffffffffffff82111561229357612292612053565b5b61229c82611e75565b9050602081019050919050565b5f6122bb6122b684612279565b6120b1565b9050828152602081018484840111156122d7576122d661204f565b5b6122e28482856120fb565b509392505050565b5f82601f8301126122fe576122fd61204b565b5b813561230e8482602086016122a9565b91505092915050565b5f805f806080858703121561232f5761232e611d78565b5b5f61233c87828801611fa9565b945050602061234d87828801611fa9565b935050604061235e87828801611efc565b925050606085013567ffffffffffffffff81111561237f5761237e611d7c565b5b61238b878288016122ea565b91505092959194509250565b5f80604083850312156123ad576123ac611d78565b5b5f6123ba85828601611fa9565b92505060206123cb85828601611fa9565b9150509250929050565b7f4e487b71000000000000000000000000000000000000000000000000000000005f52602260045260245ffd5b5f600282049050600182168061241957607f821691505b60208210810361242c5761242b6123d5565b5b50919050565b7f4552433732313a20617070726f76616c20746f2063757272656e74206f776e655f8201527f7200000000000000000000000000000000000000000000000000000000000000602082015250565b5f61248c602183611e3d565b915061249782612432565b604082019050919050565b5f6020820190508181035f8301526124b981612480565b9050919050565b7f4552433732313a20617070726f76652063616c6c6572206973206e6f7420746f5f8201527f6b656e206f776e6572206f7220617070726f76656420666f7220616c6c000000602082015250565b5f61251a603d83611e3d565b9150612525826124c0565b604082019050919050565b5f6020820190508181035f8301526125478161250e565b9050919050565b7f4552433732313a2063616c6c6572206973206e6f7420746f6b656e206f776e655f8201527f72206f7220617070726f76656400000000000000000000000000000000000000602082015250565b5f6125a8602d83611e3d565b91506125b38261254e565b604082019050919050565b5f6020820190508181035f8301526125d58161259c565b9050919050565b5f81905092915050565b5f6125f082611e33565b6125fa81856125dc565b935061260a818560208601611e4d565b80840191505092915050565b5f61262182846125e6565b915081905092915050565b7f5468697320746f6b656e55524920686173206265656e207573656400000000005f82015250565b5f612660601b83611e3d565b915061266b8261262c565b602082019050919050565b5f6020820190508181035f83015261268d81612654565b9050919050565b5f6080820190506126a75f8301876121be565b6126b460208301866121be565b6126c160408301856121be565b6126ce6060830184611f6b565b95945050505050565b7f4552433732313a20696e76616c696420746f6b656e20494400000000000000005f82015250565b5f61270b601883611e3d565b9150612716826126d7565b602082019050919050565b5f6020820190508181035f830152612738816126ff565b9050919050565b7f4552433732313a2061646472657373207a65726f206973206e6f7420612076615f8201527f6c6964206f776e65720000000000000000000000000000000000000000000000602082015250565b5f612799602983611e3d565b91506127a48261273f565b604082019050919050565b5f6020820190508181035f8301526127c68161278d565b9050919050565b5f6127d882856125e6565b91506127e482846125e6565b91508190509392505050565b7f4f776e61626c653a206e6577206f776e657220697320746865207a65726f20615f8201527f6464726573730000000000000000000000000000000000000000000000000000602082015250565b5f61284a602683611e3d565b9150612855826127f0565b604082019050919050565b5f6020820190508181035f8301526128778161283e565b9050919050565b7f4552433732313a207472616e736665722066726f6d20696e636f7272656374205f8201527f6f776e6572000000000000000000000000000000000000000000000000000000602082015250565b5f6128d8602583611e3d565b91506128e38261287e565b604082019050919050565b5f6020820190508181035f830152612905816128cc565b9050919050565b7f4552433732313a207472616e7366657220746f20746865207a65726f206164645f8201527f7265737300000000000000000000000000000000000000000000000000000000602082015250565b5f612966602483611e3d565b91506129718261290c565b604082019050919050565b5f6020820190508181035f8301526129938161295a565b9050919050565b7f45524337323155524953746f726167653a2055524920736574206f66206e6f6e5f8201527f6578697374656e7420746f6b656e000000000000000000000000000000000000602082015250565b5f6129f4602e83611e3d565b91506129ff8261299a565b604082019050919050565b5f6020820190508181035f830152612a21816129e8565b9050919050565b5f819050815f5260205f209050919050565b5f6020601f8301049050919050565b5f82821b905092915050565b5f60088302612a847fffffffffffffffffffffffffffffffffffffffffffffffffffffffffffffffff82612a49565b612a8e8683612a49565b95508019841693508086168417925050509392505050565b5f819050919050565b5f612ac9612ac4612abf84611edd565b612aa6565b611edd565b9050919050565b5f819050919050565b612ae283612aaf565b612af6612aee82612ad0565b848454612a55565b825550505050565b5f90565b612b0a612afe565b612b15818484612ad9565b505050565b5b81811015612b3857612b2d5f82612b02565b600181019050612b1b565b5050565b601f821115612b7d57612b4e81612a28565b612b5784612a3a565b81016020851015612b66578190505b612b7a612b7285612a3a565b830182612b1a565b50505b505050565b5f82821c905092915050565b5f612b9d5f1984600802612b82565b1980831691505092915050565b5f612bb58383612b8e565b9150826002028217905092915050565b612bce82611e33565b67ffffffffffffffff811115612be757612be6612053565b5b612bf18254612402565b612bfc828285612b3c565b5f60209050601f831160018114612c2d575f8415612c1b578287015190505b612c258582612baa565b865550612c8c565b601f198416612c3b86612a28565b5f5b82811015612c6257848901518255600182019150602085019450602081019050612c3d565b86831015612c7f5784890151612c7b601f891682612b8e565b8355505b6001600288020188555050505b505050505050565b7f4f776e61626c653a2063616c6c6572206973206e6f7420746865206f776e65725f82015250565b5f612cc8602083611e3d565b9150612cd382612c94565b602082019050919050565b5f6020820190508181035f830152612cf581612cbc565b9050919050565b7f4552433732313a20617070726f766520746f2063616c6c6572000000000000005f82015250565b5f612d30601983611e3d565b9150612d3b82612cfc565b602082019050919050565b5f6020820190508181035f830152612d5d81612d24565b9050919050565b7f4552433732313a207472616e7366657220746f206e6f6e2045524337323152655f8201527f63656976657220696d706c656d656e7465720000000000000000000000000000602082015250565b5f612dbe603283611e3d565b9150612dc982612d64565b604082019050919050565b5f6020820190508181035f830152612deb81612db2565b9050919050565b5f81519050919050565b5f82825260208201905092915050565b5f612e1682612df2565b612e208185612dfc565b9350612e30818560208601611e4d565b612e3981611e75565b840191505092915050565b5f608082019050612e575f830187611f6b565b612e646020830186611f6b565b612e7160408301856121be565b8181036060830152612e838184612e0c565b905095945050505050565b5f81519050612e9c81611dab565b92915050565b5f60208284031215612eb757612eb6611d78565b5b5f612ec484828501612e8e565b91505092915050565b7f4e487b71000000000000000000000000000000000000000000000000000000005f52601260045260245ffd5b7f4552433732313a206d696e7420746f20746865207a65726f20616464726573735f82015250565b5f612f2e602083611e3d565b9150612f3982612efa565b602082019050919050565b5f6020820190508181035f830152612f5b81612f22565b9050919050565b7f4552433732313a20746f6b656e20616c7265616479206d696e746564000000005f82015250565b5f612f96601c83611e3d565b9150612fa182612f62565b602082019050919050565b5f6020820190508181035f830152612fc381612f8a565b905091905056fea2646970667358221220ea4253aa2264e71f490cbfeb685fec4c2461e9e163f1c048ade300117436458764736f6c63430008140033",
  "immutableReferences": {},
  "source": "// SPDX-License-Identifier: MIT\r\n// Tells the Solidity compiler to compile only from v0.8.13 to v0.9.0\r\npragma solidity ^0.8.13;\r\nimport \"@openzeppelin/contracts/token/ERC721/extensions/ERC721URIStorage.sol\";\r\nimport \"@openzeppelin/contracts/utils/Counters.sol\";\r\nimport \"@openzeppelin/contracts/access/Ownable.sol\";\r\n\r\ncontract NoteContract is ERC721URIStorage, Ownable {\r\n    constructor() ERC721(\"NoteContract\", \"NC\") {}\r\n    using Counters for Counters.Counter;\r\n    // \r\n    Counters.Counter private _listedItems;\r\n    // tokenId\r\n    Counters.Counter private _tokenIds;\r\n    struct Note {\r\n        uint tokenId;\r\n        uint creatTime;\r\n        uint updateTime;\r\n        address creator;\r\n    }\r\n    // tokenURI, \r\n    mapping(string => bool) private _usedTokenURIs;\r\n    // ,tokenIdnote\r\n    mapping(uint => Note) private _noteList;\r\n    // token\r\n    mapping(address => mapping(uint => uint)) private _ownedTokens;\r\n    // tokenId\r\n    mapping(uint => uint) private _idToOwnerIndex;\r\n    event NoteCreated(uint tokenId, uint creatTime, uint updateTime, address creator);\r\n    // \r\n    function mintNote(string memory tokenURI) public returns (uint) {\r\n        require(!_usedTokenURIs[tokenURI], \"This tokenURI has been used\");\r\n        _tokenIds.increment();\r\n        _listedItems.increment();\r\n\r\n        uint newItemId = _tokenIds.current();\r\n        _safeMint(msg.sender, newItemId);\r\n        _setTokenURI(newItemId, tokenURI);\r\n        _usedTokenURIs[tokenURI] = true;\r\n        _noteList[newItemId] = Note(newItemId,block.timestamp,block.timestamp, msg.sender);\r\n        emit NoteCreated(newItemId, block.timestamp, block.timestamp, msg.sender);\r\n        return newItemId;\r\n    }\r\n}",
  "sourcePath": "C:\\Users\\bkyon\\Documents\\Dapp\\web3Note\\note-contract\\contracts\\NoteContract.sol",
  "compiler": {
    "name": "solc",
    "version": "0.8.20+commit.a1b79de6.Emscripten.clang"
  },
  "schemaVersion": "3.4.14",
  "updatedAt": "2023-08-25T07:38:13.886Z",
  "devdoc": {
    "events": {
      "Approval(address,address,uint256)": {
        "details": "Emitted when `owner` enables `approved` to manage the `tokenId` token."
      },
      "ApprovalForAll(address,address,bool)": {
        "details": "Emitted when `owner` enables or disables (`approved`) `operator` to manage all of its assets."
      },
      "BatchMetadataUpdate(uint256,uint256)": {
        "details": "This event emits when the metadata of a range of tokens is changed. So that the third-party platforms such as NFT market could timely update the images and related attributes of the NFTs."
      },
      "MetadataUpdate(uint256)": {
        "details": "This event emits when the metadata of a token is changed. So that the third-party platforms such as NFT market could timely update the images and related attributes of the NFT."
      },
      "Transfer(address,address,uint256)": {
        "details": "Emitted when `tokenId` token is transferred from `from` to `to`."
      }
    },
    "kind": "dev",
    "methods": {
      "approve(address,uint256)": {
        "details": "See {IERC721-approve}."
      },
      "balanceOf(address)": {
        "details": "See {IERC721-balanceOf}."
      },
      "getApproved(uint256)": {
        "details": "See {IERC721-getApproved}."
      },
      "isApprovedForAll(address,address)": {
        "details": "See {IERC721-isApprovedForAll}."
      },
      "name()": {
        "details": "See {IERC721Metadata-name}."
      },
      "owner()": {
        "details": "Returns the address of the current owner."
      },
      "ownerOf(uint256)": {
        "details": "See {IERC721-ownerOf}."
      },
      "renounceOwnership()": {
        "details": "Leaves the contract without owner. It will not be possible to call `onlyOwner` functions. Can only be called by the current owner. NOTE: Renouncing ownership will leave the contract without an owner, thereby disabling any functionality that is only available to the owner."
      },
      "safeTransferFrom(address,address,uint256)": {
        "details": "See {IERC721-safeTransferFrom}."
      },
      "safeTransferFrom(address,address,uint256,bytes)": {
        "details": "See {IERC721-safeTransferFrom}."
      },
      "setApprovalForAll(address,bool)": {
        "details": "See {IERC721-setApprovalForAll}."
      },
      "supportsInterface(bytes4)": {
        "details": "See {IERC165-supportsInterface}"
      },
      "symbol()": {
        "details": "See {IERC721Metadata-symbol}."
      },
      "tokenURI(uint256)": {
        "details": "See {IERC721Metadata-tokenURI}."
      },
      "transferFrom(address,address,uint256)": {
        "details": "See {IERC721-transferFrom}."
      },
      "transferOwnership(address)": {
        "details": "Transfers ownership of the contract to a new account (`newOwner`). Can only be called by the current owner."
      }
    },
    "version": 1
  },
  "userdoc": {
    "kind": "user",
    "methods": {},
    "version": 1
  }
}