{
  "contractName": "NoteContract",
  "abi": [
    {
      "anonymous": false,
      "inputs": [
        {
          "indexed": true,
          "internalType": "address",
          "name": "owner",
          "type": "address"
        },
        {
          "indexed": true,
          "internalType": "address",
          "name": "approved",
          "type": "address"
        },
        {
          "indexed": true,
          "internalType": "uint256",
          "name": "tokenId",
          "type": "uint256"
        }
      ],
      "name": "Approval",
      "type": "event"
    },
    {
      "anonymous": false,
      "inputs": [
        {
          "indexed": true,
          "internalType": "address",
          "name": "owner",
          "type": "address"
        },
        {
          "indexed": true,
          "internalType": "address",
          "name": "operator",
          "type": "address"
        },
        {
          "indexed": false,
          "internalType": "bool",
          "name": "approved",
          "type": "bool"
        }
      ],
      "name": "ApprovalForAll",
      "type": "event"
    },
    {
      "anonymous": false,
      "inputs": [
        {
          "indexed": false,
          "internalType": "uint256",
          "name": "_fromTokenId",
          "type": "uint256"
        },
        {
          "indexed": false,
          "internalType": "uint256",
          "name": "_toTokenId",
          "type": "uint256"
        }
      ],
      "name": "BatchMetadataUpdate",
      "type": "event"
    },
    {
      "anonymous": false,
      "inputs": [
        {
          "indexed": false,
          "internalType": "uint8",
          "name": "version",
          "type": "uint8"
        }
      ],
      "name": "Initialized",
      "type": "event"
    },
    {
      "anonymous": false,
      "inputs": [
        {
          "indexed": false,
          "internalType": "uint256",
          "name": "_tokenId",
          "type": "uint256"
        }
      ],
      "name": "MetadataUpdate",
      "type": "event"
    },
    {
      "anonymous": false,
      "inputs": [
        {
          "indexed": false,
          "internalType": "uint256",
          "name": "tokenId",
          "type": "uint256"
        },
        {
          "indexed": false,
          "internalType": "address",
          "name": "creator",
          "type": "address"
        }
      ],
      "name": "NoteCreated",
      "type": "event"
    },
    {
      "anonymous": false,
      "inputs": [
        {
          "indexed": true,
          "internalType": "address",
          "name": "from",
          "type": "address"
        },
        {
          "indexed": true,
          "internalType": "address",
          "name": "to",
          "type": "address"
        },
        {
          "indexed": true,
          "internalType": "uint256",
          "name": "tokenId",
          "type": "uint256"
        }
      ],
      "name": "Transfer",
      "type": "event"
    },
    {
      "inputs": [
        {
          "internalType": "address",
          "name": "to",
          "type": "address"
        },
        {
          "internalType": "uint256",
          "name": "tokenId",
          "type": "uint256"
        }
      ],
      "name": "approve",
      "outputs": [],
      "stateMutability": "nonpayable",
      "type": "function"
    },
    {
      "inputs": [
        {
          "internalType": "address",
          "name": "owner",
          "type": "address"
        }
      ],
      "name": "balanceOf",
      "outputs": [
        {
          "internalType": "uint256",
          "name": "",
          "type": "uint256"
        }
      ],
      "stateMutability": "view",
      "type": "function",
      "constant": true
    },
    {
      "inputs": [
        {
          "internalType": "uint256",
          "name": "tokenId",
          "type": "uint256"
        }
      ],
      "name": "getApproved",
      "outputs": [
        {
          "internalType": "address",
          "name": "",
          "type": "address"
        }
      ],
      "stateMutability": "view",
      "type": "function",
      "constant": true
    },
    {
      "inputs": [
        {
          "internalType": "address",
          "name": "owner",
          "type": "address"
        },
        {
          "internalType": "address",
          "name": "operator",
          "type": "address"
        }
      ],
      "name": "isApprovedForAll",
      "outputs": [
        {
          "internalType": "bool",
          "name": "",
          "type": "bool"
        }
      ],
      "stateMutability": "view",
      "type": "function",
      "constant": true
    },
    {
      "inputs": [],
      "name": "name",
      "outputs": [
        {
          "internalType": "string",
          "name": "",
          "type": "string"
        }
      ],
      "stateMutability": "view",
      "type": "function",
      "constant": true
    },
    {
      "inputs": [
        {
          "internalType": "uint256",
          "name": "tokenId",
          "type": "uint256"
        }
      ],
      "name": "ownerOf",
      "outputs": [
        {
          "internalType": "address",
          "name": "",
          "type": "address"
        }
      ],
      "stateMutability": "view",
      "type": "function",
      "constant": true
    },
    {
      "inputs": [
        {
          "internalType": "address",
          "name": "from",
          "type": "address"
        },
        {
          "internalType": "address",
          "name": "to",
          "type": "address"
        },
        {
          "internalType": "uint256",
          "name": "tokenId",
          "type": "uint256"
        }
      ],
      "name": "safeTransferFrom",
      "outputs": [],
      "stateMutability": "nonpayable",
      "type": "function"
    },
    {
      "inputs": [
        {
          "internalType": "address",
          "name": "from",
          "type": "address"
        },
        {
          "internalType": "address",
          "name": "to",
          "type": "address"
        },
        {
          "internalType": "uint256",
          "name": "tokenId",
          "type": "uint256"
        },
        {
          "internalType": "bytes",
          "name": "data",
          "type": "bytes"
        }
      ],
      "name": "safeTransferFrom",
      "outputs": [],
      "stateMutability": "nonpayable",
      "type": "function"
    },
    {
      "inputs": [
        {
          "internalType": "address",
          "name": "operator",
          "type": "address"
        },
        {
          "internalType": "bool",
          "name": "approved",
          "type": "bool"
        }
      ],
      "name": "setApprovalForAll",
      "outputs": [],
      "stateMutability": "nonpayable",
      "type": "function"
    },
    {
      "inputs": [
        {
          "internalType": "bytes4",
          "name": "interfaceId",
          "type": "bytes4"
        }
      ],
      "name": "supportsInterface",
      "outputs": [
        {
          "internalType": "bool",
          "name": "",
          "type": "bool"
        }
      ],
      "stateMutability": "view",
      "type": "function",
      "constant": true
    },
    {
      "inputs": [],
      "name": "symbol",
      "outputs": [
        {
          "internalType": "string",
          "name": "",
          "type": "string"
        }
      ],
      "stateMutability": "view",
      "type": "function",
      "constant": true
    },
    {
      "inputs": [
        {
          "internalType": "uint256",
          "name": "tokenId",
          "type": "uint256"
        }
      ],
      "name": "tokenURI",
      "outputs": [
        {
          "internalType": "string",
          "name": "",
          "type": "string"
        }
      ],
      "stateMutability": "view",
      "type": "function",
      "constant": true
    },
    {
      "inputs": [
        {
          "internalType": "address",
          "name": "from",
          "type": "address"
        },
        {
          "internalType": "address",
          "name": "to",
          "type": "address"
        },
        {
          "internalType": "uint256",
          "name": "tokenId",
          "type": "uint256"
        }
      ],
      "name": "transferFrom",
      "outputs": [],
      "stateMutability": "nonpayable",
      "type": "function"
    },
    {
      "inputs": [],
      "name": "initialize",
      "outputs": [],
      "stateMutability": "nonpayable",
      "type": "function"
    },
    {
      "inputs": [
        {
          "internalType": "string",
          "name": "tokenURI",
          "type": "string"
        }
      ],
      "name": "mintNote",
      "outputs": [
        {
          "internalType": "uint256",
          "name": "",
          "type": "uint256"
        }
      ],
      "stateMutability": "nonpayable",
      "type": "function"
    },
    {
      "inputs": [],
      "name": "getOwnedNotes",
      "outputs": [
        {
          "components": [
            {
              "internalType": "uint256",
              "name": "tokenId",
              "type": "uint256"
            },
            {
              "internalType": "address",
              "name": "creator",
              "type": "address"
            }
          ],
          "internalType": "struct NoteContract.Note[]",
          "name": "",
          "type": "tuple[]"
        }
      ],
      "stateMutability": "view",
      "type": "function",
      "constant": true
    },
    {
      "inputs": [
        {
          "internalType": "uint256",
          "name": "tokenId",
          "type": "uint256"
        }
      ],
      "name": "burnTokenId",
      "outputs": [],
      "stateMutability": "nonpayable",
      "type": "function"
    }
  ],
  "bytecode": "0x608060405234801561001057600080fd5b506139dd806100206000396000f3fe608060405234801561001057600080fd5b506004361061010b5760003560e01c80636352211e116100a2578063a22cb46511610071578063a22cb465146102b8578063b88d4fde146102d4578063c32d88ff146102f0578063c87b56dd1461030c578063e985e9c51461033c5761010b565b80636352211e1461023057806370a08231146102605780638129fc1c1461029057806395d89b411461029a5761010b565b806323b872dd116100de57806323b872dd146101aa5780632d731b69146101c65780632f2f7c4d146101e457806342842e0e146102145761010b565b806301ffc9a71461011057806306fdde0314610140578063081812fc1461015e578063095ea7b31461018e575b600080fd5b61012a6004803603810190610125919061268d565b61036c565b60405161013791906126d5565b60405180910390f35b6101486103cd565b6040516101559190612789565b60405180910390f35b610178600480360381019061017391906127e1565b61045f565b604051610185919061284f565b60405180910390f35b6101a860048036038101906101a39190612896565b6104a5565b005b6101c460048036038101906101bf91906128d6565b6105bc565b005b6101ce61061c565b6040516101db9190612a25565b60405180910390f35b6101fe60048036038101906101f99190612b7c565b6107a2565b60405161020b9190612bd4565b60405180910390f35b61022e600480360381019061022991906128d6565b610951565b005b61024a600480360381019061024591906127e1565b610971565b604051610257919061284f565b60405180910390f35b61027a60048036038101906102759190612bef565b6109f7565b6040516102879190612bd4565b60405180910390f35b610298610aae565b005b6102a2610c58565b6040516102af9190612789565b60405180910390f35b6102d260048036038101906102cd9190612c48565b610cea565b005b6102ee60048036038101906102e99190612d29565b610d00565b005b61030a600480360381019061030591906127e1565b610d62565b005b610326600480360381019061032191906127e1565b610e12565b6040516103339190612789565b60405180910390f35b61035660048036038101906103519190612dac565b610f24565b60405161036391906126d5565b60405180910390f35b6000634906490660e01b7bffffffffffffffffffffffffffffffffffffffffffffffffffffffff1916827bffffffffffffffffffffffffffffffffffffffffffffffffffffffff191614806103c657506103c582610fb8565b5b9050919050565b6060606580546103dc90612e1b565b80601f016020809104026020016040519081016040528092919081815260200182805461040890612e1b565b80156104555780601f1061042a57610100808354040283529160200191610455565b820191906000526020600020905b81548152906001019060200180831161043857829003601f168201915b5050505050905090565b600061046a8261109a565b6069600083815260200190815260200160002060009054906101000a900473ffffffffffffffffffffffffffffffffffffffff169050919050565b60006104b082610971565b90508073ffffffffffffffffffffffffffffffffffffffff168373ffffffffffffffffffffffffffffffffffffffff1603610520576040517f08c379a000000000000000000000000000000000000000000000000000000000815260040161051790612ebe565b60405180910390fd5b8073ffffffffffffffffffffffffffffffffffffffff1661053f6110e5565b73ffffffffffffffffffffffffffffffffffffffff16148061056e575061056d816105686110e5565b610f24565b5b6105ad576040517f08c379a00000000000000000000000000000000000000000000000000000000081526004016105a490612f50565b60405180910390fd5b6105b783836110ed565b505050565b6105cd6105c76110e5565b826111a6565b61060c576040517f08c379a000000000000000000000000000000000000000000000000000000000815260040161060390612fe2565b60405180910390fd5b61061783838361123b565b505050565b60606000610629336109f7565b905060008167ffffffffffffffff81111561064757610646612a51565b5b60405190808252806020026020018201604052801561068057816020015b61066d61250e565b8152602001906001900390816106655790505b50905060005b8281101561079957600060cd60003373ffffffffffffffffffffffffffffffffffffffff1673ffffffffffffffffffffffffffffffffffffffff1681526020019081526020016000206000838152602001908152602001600020549050600060cc6000838152602001908152602001600020905080604051806040016040529081600082015481526020016001820160009054906101000a900473ffffffffffffffffffffffffffffffffffffffff1673ffffffffffffffffffffffffffffffffffffffff1673ffffffffffffffffffffffffffffffffffffffff168152505084848151811061077957610778613002565b5b60200260200101819052505050808061079190613060565b915050610686565b50809250505090565b600060cb826040516107b491906130e4565b908152602001604051809103902060009054906101000a900460ff1615610810576040517f08c379a000000000000000000000000000000000000000000000000000000000815260040161080790613147565b60405180910390fd5b61081a60ca611534565b61082460c9611534565b600061083060ca61154a565b905061083c3382611558565b6108468184611576565b600160cb8460405161085891906130e4565b908152602001604051809103902060006101000a81548160ff02191690831515021790555060405180604001604052808281526020013373ffffffffffffffffffffffffffffffffffffffff1681525060cc60008381526020019081526020016000206000820151816000015560208201518160010160006101000a81548173ffffffffffffffffffffffffffffffffffffffff021916908373ffffffffffffffffffffffffffffffffffffffff1602179055509050507f1d39a71a40c14bee233655b3e373b6dfe3d42c9cf199fb03578b4aee93d5cbc18133604051610940929190613167565b60405180910390a180915050919050565b61096c83838360405180602001604052806000815250610d00565b505050565b60008061097d83611621565b9050600073ffffffffffffffffffffffffffffffffffffffff168173ffffffffffffffffffffffffffffffffffffffff16036109ee576040517f08c379a00000000000000000000000000000000000000000000000000000000081526004016109e5906131dc565b60405180910390fd5b80915050919050565b60008073ffffffffffffffffffffffffffffffffffffffff168273ffffffffffffffffffffffffffffffffffffffff1603610a67576040517f08c379a0000000000000000000000000000000000000000000000000000000008152600401610a5e9061326e565b60405180910390fd5b606860008373ffffffffffffffffffffffffffffffffffffffff1673ffffffffffffffffffffffffffffffffffffffff168152602001908152602001600020549050919050565b60008060019054906101000a900460ff16159050808015610adf5750600160008054906101000a900460ff1660ff16105b80610b0c5750610aee3061165e565b158015610b0b5750600160008054906101000a900460ff1660ff16145b5b610b4b576040517f08c379a0000000000000000000000000000000000000000000000000000000008152600401610b4290613300565b60405180910390fd5b60016000806101000a81548160ff021916908360ff1602179055508015610b88576001600060016101000a81548160ff0219169083151502179055505b610bfc6040518060400160405280600881526020017f776562334e6f74650000000000000000000000000000000000000000000000008152506040518060400160405280600281526020017f4e43000000000000000000000000000000000000000000000000000000000000815250611681565b8015610c555760008060016101000a81548160ff0219169083151502179055507f7f26b83ff96e1f2b6a682f133852f6798a09c465da95921460cefb38474024986001604051610c4c9190613372565b60405180910390a15b50565b606060668054610c6790612e1b565b80601f0160208091040260200160405190810160405280929190818152602001828054610c9390612e1b565b8015610ce05780601f10610cb557610100808354040283529160200191610ce0565b820191906000526020600020905b815481529060010190602001808311610cc357829003601f168201915b5050505050905090565b610cfc610cf56110e5565b83836116de565b5050565b610d11610d0b6110e5565b836111a6565b610d50576040517f08c379a0000000000000000000000000000000000000000000000000000000008152600401610d4790612fe2565b60405180910390fd5b610d5c8484848461184a565b50505050565b60cc600082815260200190815260200160002060010160009054906101000a900473ffffffffffffffffffffffffffffffffffffffff1673ffffffffffffffffffffffffffffffffffffffff163373ffffffffffffffffffffffffffffffffffffffff1614610e06576040517f08c379a0000000000000000000000000000000000000000000000000000000008152600401610dfd906133ff565b60405180910390fd5b610e0f816118a6565b50565b6060610e1d8261109a565b6000609760008481526020019081526020016000208054610e3d90612e1b565b80601f0160208091040260200160405190810160405280929190818152602001828054610e6990612e1b565b8015610eb65780601f10610e8b57610100808354040283529160200191610eb6565b820191906000526020600020905b815481529060010190602001808311610e9957829003601f168201915b505050505090506000610ec76118f9565b90506000815103610edc578192505050610f1f565b600082511115610f11578082604051602001610ef992919061341f565b60405160208183030381529060405292505050610f1f565b610f1a84611910565b925050505b919050565b6000606a60008473ffffffffffffffffffffffffffffffffffffffff1673ffffffffffffffffffffffffffffffffffffffff16815260200190815260200160002060008373ffffffffffffffffffffffffffffffffffffffff1673ffffffffffffffffffffffffffffffffffffffff16815260200190815260200160002060009054906101000a900460ff16905092915050565b60007f80ac58cd000000000000000000000000000000000000000000000000000000007bffffffffffffffffffffffffffffffffffffffffffffffffffffffff1916827bffffffffffffffffffffffffffffffffffffffffffffffffffffffff1916148061108357507f5b5e139f000000000000000000000000000000000000000000000000000000007bffffffffffffffffffffffffffffffffffffffffffffffffffffffff1916827bffffffffffffffffffffffffffffffffffffffffffffffffffffffff1916145b80611093575061109282611978565b5b9050919050565b6110a3816119e2565b6110e2576040517f08c379a00000000000000000000000000000000000000000000000000000000081526004016110d9906131dc565b60405180910390fd5b50565b600033905090565b816069600083815260200190815260200160002060006101000a81548173ffffffffffffffffffffffffffffffffffffffff021916908373ffffffffffffffffffffffffffffffffffffffff160217905550808273ffffffffffffffffffffffffffffffffffffffff1661116083610971565b73ffffffffffffffffffffffffffffffffffffffff167f8c5be1e5ebec7d5bd14f71427d1e84f3dd0314c0f7b2291e5b200ac8c7c3b92560405160405180910390a45050565b6000806111b283610971565b90508073ffffffffffffffffffffffffffffffffffffffff168473ffffffffffffffffffffffffffffffffffffffff1614806111f457506111f38185610f24565b5b8061123257508373ffffffffffffffffffffffffffffffffffffffff1661121a8461045f565b73ffffffffffffffffffffffffffffffffffffffff16145b91505092915050565b8273ffffffffffffffffffffffffffffffffffffffff1661125b82610971565b73ffffffffffffffffffffffffffffffffffffffff16146112b1576040517f08c379a00000000000000000000000000000000000000000000000000000000081526004016112a8906134b5565b60405180910390fd5b600073ffffffffffffffffffffffffffffffffffffffff168273ffffffffffffffffffffffffffffffffffffffff1603611320576040517f08c379a000000000000000000000000000000000000000000000000000000000815260040161131790613547565b60405180910390fd5b61132d8383836001611a23565b8273ffffffffffffffffffffffffffffffffffffffff1661134d82610971565b73ffffffffffffffffffffffffffffffffffffffff16146113a3576040517f08c379a000000000000000000000000000000000000000000000000000000000815260040161139a906134b5565b60405180910390fd5b6069600082815260200190815260200160002060006101000a81549073ffffffffffffffffffffffffffffffffffffffff02191690556001606860008573ffffffffffffffffffffffffffffffffffffffff1673ffffffffffffffffffffffffffffffffffffffff168152602001908152602001600020600082825403925050819055506001606860008473ffffffffffffffffffffffffffffffffffffffff1673ffffffffffffffffffffffffffffffffffffffff16815260200190815260200160002060008282540192505081905550816067600083815260200190815260200160002060006101000a81548173ffffffffffffffffffffffffffffffffffffffff021916908373ffffffffffffffffffffffffffffffffffffffff160217905550808273ffffffffffffffffffffffffffffffffffffffff168473ffffffffffffffffffffffffffffffffffffffff167fddf252ad1be2c89b69c2b068fc378daa952ba7f163c4a11628f55a4df523b3ef60405160405180910390a461152f8383836001611b27565b505050565b6001816000016000828254019250508190555050565b600081600001549050919050565b611572828260405180602001604052806000815250611b2d565b5050565b61157f826119e2565b6115be576040517f08c379a00000000000000000000000000000000000000000000000000000000081526004016115b5906135d9565b60405180910390fd5b806097600084815260200190815260200160002090805190602001906115e592919061253e565b507ff8e1a15aba9398e019f0b49df1a4fde98ee17ae345cb5f6b5e2c27f5033e8ce7826040516116159190612bd4565b60405180910390a15050565b60006067600083815260200190815260200160002060009054906101000a900473ffffffffffffffffffffffffffffffffffffffff169050919050565b6000808273ffffffffffffffffffffffffffffffffffffffff163b119050919050565b600060019054906101000a900460ff166116d0576040517f08c379a00000000000000000000000000000000000000000000000000000000081526004016116c79061366b565b60405180910390fd5b6116da8282611b88565b5050565b8173ffffffffffffffffffffffffffffffffffffffff168373ffffffffffffffffffffffffffffffffffffffff160361174c576040517f08c379a0000000000000000000000000000000000000000000000000000000008152600401611743906136d7565b60405180910390fd5b80606a60008573ffffffffffffffffffffffffffffffffffffffff1673ffffffffffffffffffffffffffffffffffffffff16815260200190815260200160002060008473ffffffffffffffffffffffffffffffffffffffff1673ffffffffffffffffffffffffffffffffffffffff16815260200190815260200160002060006101000a81548160ff0219169083151502179055508173ffffffffffffffffffffffffffffffffffffffff168373ffffffffffffffffffffffffffffffffffffffff167f17307eab39ab6107e8899845ad3d59bd9653f200f220920489ca2b5937696c318360405161183d91906126d5565b60405180910390a3505050565b61185584848461123b565b61186184848484611c09565b6118a0576040517f08c379a000000000000000000000000000000000000000000000000000000000815260040161189790613769565b60405180910390fd5b50505050565b6118af81611d90565b60006097600083815260200190815260200160002080546118cf90612e1b565b9050146118f6576097600082815260200190815260200160002060006118f591906125c4565b5b50565b606060405180602001604052806000815250905090565b606061191b8261109a565b60006119256118f9565b905060008151116119455760405180602001604052806000815250611970565b8061194f84611ede565b60405160200161196092919061341f565b6040516020818303038152906040525b915050919050565b60007f01ffc9a7000000000000000000000000000000000000000000000000000000007bffffffffffffffffffffffffffffffffffffffffffffffffffffffff1916827bffffffffffffffffffffffffffffffffffffffffffffffffffffffff1916149050919050565b60008073ffffffffffffffffffffffffffffffffffffffff16611a0483611621565b73ffffffffffffffffffffffffffffffffffffffff1614159050919050565b611a2f84848484611fac565b600073ffffffffffffffffffffffffffffffffffffffff168473ffffffffffffffffffffffffffffffffffffffff1614158015611a9857508273ffffffffffffffffffffffffffffffffffffffff168473ffffffffffffffffffffffffffffffffffffffff1614155b15611aa857611aa78483611fb2565b5b600073ffffffffffffffffffffffffffffffffffffffff168373ffffffffffffffffffffffffffffffffffffffff1614158015611b1157508373ffffffffffffffffffffffffffffffffffffffff168373ffffffffffffffffffffffffffffffffffffffff1614155b15611b2157611b20838361211f565b5b50505050565b50505050565b611b37838361219e565b611b446000848484611c09565b611b83576040517f08c379a0000000000000000000000000000000000000000000000000000000008152600401611b7a90613769565b60405180910390fd5b505050565b600060019054906101000a900460ff16611bd7576040517f08c379a0000000000000000000000000000000000000000000000000000000008152600401611bce9061366b565b60405180910390fd5b8160659080519060200190611bed92919061253e565b508060669080519060200190611c0492919061253e565b505050565b6000611c2a8473ffffffffffffffffffffffffffffffffffffffff1661165e565b15611d83578373ffffffffffffffffffffffffffffffffffffffff1663150b7a02611c536110e5565b8786866040518563ffffffff1660e01b8152600401611c7594939291906137de565b6020604051808303816000875af1925050508015611cb157506040513d601f19601f82011682018060405250810190611cae919061383f565b60015b611d33573d8060008114611ce1576040519150601f19603f3d011682016040523d82523d6000602084013e611ce6565b606091505b506000815103611d2b576040517f08c379a0000000000000000000000000000000000000000000000000000000008152600401611d2290613769565b60405180910390fd5b805181602001fd5b63150b7a0260e01b7bffffffffffffffffffffffffffffffffffffffffffffffffffffffff1916817bffffffffffffffffffffffffffffffffffffffffffffffffffffffff191614915050611d88565b600190505b949350505050565b6000611d9b82610971565b9050611dab816000846001611a23565b611db482610971565b90506069600083815260200190815260200160002060006101000a81549073ffffffffffffffffffffffffffffffffffffffff02191690556001606860008373ffffffffffffffffffffffffffffffffffffffff1673ffffffffffffffffffffffffffffffffffffffff168152602001908152602001600020600082825403925050819055506067600083815260200190815260200160002060006101000a81549073ffffffffffffffffffffffffffffffffffffffff021916905581600073ffffffffffffffffffffffffffffffffffffffff168273ffffffffffffffffffffffffffffffffffffffff167fddf252ad1be2c89b69c2b068fc378daa952ba7f163c4a11628f55a4df523b3ef60405160405180910390a4611eda816000846001611b27565b5050565b606060006001611eed846123bb565b01905060008167ffffffffffffffff811115611f0c57611f0b612a51565b5b6040519080825280601f01601f191660200182016040528015611f3e5781602001600182028036833780820191505090505b509050600082602001820190505b600115611fa1578080600190039150507f3031323334353637383961626364656600000000000000000000000000000000600a86061a8153600a8581611f9557611f9461386c565b5b04945060008503611f4c575b819350505050919050565b50505050565b60006001611fbf846109f7565b611fc9919061389b565b9050600060ce60008481526020019081526020016000205490508181146120ae57600060cd60008673ffffffffffffffffffffffffffffffffffffffff1673ffffffffffffffffffffffffffffffffffffffff16815260200190815260200160002060008481526020019081526020016000205490508060cd60008773ffffffffffffffffffffffffffffffffffffffff1673ffffffffffffffffffffffffffffffffffffffff1681526020019081526020016000206000848152602001908152602001600020819055508160ce600083815260200190815260200160002081905550505b60ce60008481526020019081526020016000206000905560cd60008573ffffffffffffffffffffffffffffffffffffffff1673ffffffffffffffffffffffffffffffffffffffff16815260200190815260200160002060008381526020019081526020016000206000905550505050565b600061212a836109f7565b90508160cd60008573ffffffffffffffffffffffffffffffffffffffff1673ffffffffffffffffffffffffffffffffffffffff1681526020019081526020016000206000838152602001908152602001600020819055508060ce600084815260200190815260200160002081905550505050565b600073ffffffffffffffffffffffffffffffffffffffff168273ffffffffffffffffffffffffffffffffffffffff160361220d576040517f08c379a00000000000000000000000000000000000000000000000000000000081526004016122049061391b565b60405180910390fd5b612216816119e2565b15612256576040517f08c379a000000000000000000000000000000000000000000000000000000000815260040161224d90613987565b60405180910390fd5b612264600083836001611a23565b61226d816119e2565b156122ad576040517f08c379a00000000000000000000000000000000000000000000000000000000081526004016122a490613987565b60405180910390fd5b6001606860008473ffffffffffffffffffffffffffffffffffffffff1673ffffffffffffffffffffffffffffffffffffffff16815260200190815260200160002060008282540192505081905550816067600083815260200190815260200160002060006101000a81548173ffffffffffffffffffffffffffffffffffffffff021916908373ffffffffffffffffffffffffffffffffffffffff160217905550808273ffffffffffffffffffffffffffffffffffffffff16600073ffffffffffffffffffffffffffffffffffffffff167fddf252ad1be2c89b69c2b068fc378daa952ba7f163c4a11628f55a4df523b3ef60405160405180910390a46123b7600083836001611b27565b5050565b600080600090507a184f03e93ff9f4daa797ed6e38ed64bf6a1f0100000000000000008310612419577a184f03e93ff9f4daa797ed6e38ed64bf6a1f010000000000000000838161240f5761240e61386c565b5b0492506040810190505b6d04ee2d6d415b85acef81000000008310612456576d04ee2d6d415b85acef8100000000838161244c5761244b61386c565b5b0492506020810190505b662386f26fc10000831061248557662386f26fc10000838161247b5761247a61386c565b5b0492506010810190505b6305f5e10083106124ae576305f5e10083816124a4576124a361386c565b5b0492506008810190505b61271083106124d35761271083816124c9576124c861386c565b5b0492506004810190505b606483106124f657606483816124ec576124eb61386c565b5b0492506002810190505b600a8310612505576001810190505b80915050919050565b604051806040016040528060008152602001600073ffffffffffffffffffffffffffffffffffffffff1681525090565b82805461254a90612e1b565b90600052602060002090601f01602090048101928261256c57600085556125b3565b82601f1061258557805160ff19168380011785556125b3565b828001600101855582156125b3579182015b828111156125b2578251825591602001919060010190612597565b5b5090506125c09190612604565b5090565b5080546125d090612e1b565b6000825580601f106125e25750612601565b601f0160209004906000526020600020908101906126009190612604565b5b50565b5b8082111561261d576000816000905550600101612605565b5090565b6000604051905090565b600080fd5b600080fd5b60007fffffffff0000000000000000000000000000000000000000000000000000000082169050919050565b61266a81612635565b811461267557600080fd5b50565b60008135905061268781612661565b92915050565b6000602082840312156126a3576126a261262b565b5b60006126b184828501612678565b91505092915050565b60008115159050919050565b6126cf816126ba565b82525050565b60006020820190506126ea60008301846126c6565b92915050565b600081519050919050565b600082825260208201905092915050565b60005b8381101561272a57808201518184015260208101905061270f565b83811115612739576000848401525b50505050565b6000601f19601f8301169050919050565b600061275b826126f0565b61276581856126fb565b935061277581856020860161270c565b61277e8161273f565b840191505092915050565b600060208201905081810360008301526127a38184612750565b905092915050565b6000819050919050565b6127be816127ab565b81146127c957600080fd5b50565b6000813590506127db816127b5565b92915050565b6000602082840312156127f7576127f661262b565b5b6000612805848285016127cc565b91505092915050565b600073ffffffffffffffffffffffffffffffffffffffff82169050919050565b60006128398261280e565b9050919050565b6128498161282e565b82525050565b60006020820190506128646000830184612840565b92915050565b6128738161282e565b811461287e57600080fd5b50565b6000813590506128908161286a565b92915050565b600080604083850312156128ad576128ac61262b565b5b60006128bb85828601612881565b92505060206128cc858286016127cc565b9150509250929050565b6000806000606084860312156128ef576128ee61262b565b5b60006128fd86828701612881565b935050602061290e86828701612881565b925050604061291f868287016127cc565b9150509250925092565b600081519050919050565b600082825260208201905092915050565b6000819050602082019050919050565b61295e816127ab565b82525050565b61296d8161282e565b82525050565b6040820160008201516129896000850182612955565b50602082015161299c6020850182612964565b50505050565b60006129ae8383612973565b60408301905092915050565b6000602082019050919050565b60006129d282612929565b6129dc8185612934565b93506129e783612945565b8060005b83811015612a185781516129ff88826129a2565b9750612a0a836129ba565b9250506001810190506129eb565b5085935050505092915050565b60006020820190508181036000830152612a3f81846129c7565b905092915050565b600080fd5b600080fd5b7f4e487b7100000000000000000000000000000000000000000000000000000000600052604160045260246000fd5b612a898261273f565b810181811067ffffffffffffffff82111715612aa857612aa7612a51565b5b80604052505050565b6000612abb612621565b9050612ac78282612a80565b919050565b600067ffffffffffffffff821115612ae757612ae6612a51565b5b612af08261273f565b9050602081019050919050565b82818337600083830152505050565b6000612b1f612b1a84612acc565b612ab1565b905082815260208101848484011115612b3b57612b3a612a4c565b5b612b46848285612afd565b509392505050565b600082601f830112612b6357612b62612a47565b5b8135612b73848260208601612b0c565b91505092915050565b600060208284031215612b9257612b9161262b565b5b600082013567ffffffffffffffff811115612bb057612baf612630565b5b612bbc84828501612b4e565b91505092915050565b612bce816127ab565b82525050565b6000602082019050612be96000830184612bc5565b92915050565b600060208284031215612c0557612c0461262b565b5b6000612c1384828501612881565b91505092915050565b612c25816126ba565b8114612c3057600080fd5b50565b600081359050612c4281612c1c565b92915050565b60008060408385031215612c5f57612c5e61262b565b5b6000612c6d85828601612881565b9250506020612c7e85828601612c33565b9150509250929050565b600067ffffffffffffffff821115612ca357612ca2612a51565b5b612cac8261273f565b9050602081019050919050565b6000612ccc612cc784612c88565b612ab1565b905082815260208101848484011115612ce857612ce7612a4c565b5b612cf3848285612afd565b509392505050565b600082601f830112612d1057612d0f612a47565b5b8135612d20848260208601612cb9565b91505092915050565b60008060008060808587031215612d4357612d4261262b565b5b6000612d5187828801612881565b9450506020612d6287828801612881565b9350506040612d73878288016127cc565b925050606085013567ffffffffffffffff811115612d9457612d93612630565b5b612da087828801612cfb565b91505092959194509250565b60008060408385031215612dc357612dc261262b565b5b6000612dd185828601612881565b9250506020612de285828601612881565b9150509250929050565b7f4e487b7100000000000000000000000000000000000000000000000000000000600052602260045260246000fd5b60006002820490506001821680612e3357607f821691505b602082108103612e4657612e45612dec565b5b50919050565b7f4552433732313a20617070726f76616c20746f2063757272656e74206f776e6560008201527f7200000000000000000000000000000000000000000000000000000000000000602082015250565b6000612ea86021836126fb565b9150612eb382612e4c565b604082019050919050565b60006020820190508181036000830152612ed781612e9b565b9050919050565b7f4552433732313a20617070726f76652063616c6c6572206973206e6f7420746f60008201527f6b656e206f776e6572206f7220617070726f76656420666f7220616c6c000000602082015250565b6000612f3a603d836126fb565b9150612f4582612ede565b604082019050919050565b60006020820190508181036000830152612f6981612f2d565b9050919050565b7f4552433732313a2063616c6c6572206973206e6f7420746f6b656e206f776e6560008201527f72206f7220617070726f76656400000000000000000000000000000000000000602082015250565b6000612fcc602d836126fb565b9150612fd782612f70565b604082019050919050565b60006020820190508181036000830152612ffb81612fbf565b9050919050565b7f4e487b7100000000000000000000000000000000000000000000000000000000600052603260045260246000fd5b7f4e487b7100000000000000000000000000000000000000000000000000000000600052601160045260246000fd5b600061306b826127ab565b91507fffffffffffffffffffffffffffffffffffffffffffffffffffffffffffffffff820361309d5761309c613031565b5b600182019050919050565b600081905092915050565b60006130be826126f0565b6130c881856130a8565b93506130d881856020860161270c565b80840191505092915050565b60006130f082846130b3565b915081905092915050565b7f5468697320746f6b656e55524920686173206265656e20757365640000000000600082015250565b6000613131601b836126fb565b915061313c826130fb565b602082019050919050565b6000602082019050818103600083015261316081613124565b9050919050565b600060408201905061317c6000830185612bc5565b6131896020830184612840565b9392505050565b7f4552433732313a20696e76616c696420746f6b656e2049440000000000000000600082015250565b60006131c66018836126fb565b91506131d182613190565b602082019050919050565b600060208201905081810360008301526131f5816131b9565b9050919050565b7f4552433732313a2061646472657373207a65726f206973206e6f74206120766160008201527f6c6964206f776e65720000000000000000000000000000000000000000000000602082015250565b60006132586029836126fb565b9150613263826131fc565b604082019050919050565b600060208201905081810360008301526132878161324b565b9050919050565b7f496e697469616c697a61626c653a20636f6e747261637420697320616c72656160008201527f647920696e697469616c697a6564000000000000000000000000000000000000602082015250565b60006132ea602e836126fb565b91506132f58261328e565b604082019050919050565b60006020820190508181036000830152613319816132dd565b9050919050565b6000819050919050565b600060ff82169050919050565b6000819050919050565b600061335c61335761335284613320565b613337565b61332a565b9050919050565b61336c81613341565b82525050565b60006020820190506133876000830184613363565b92915050565b7f596f7520617265206e6f74207468652063726561746f72206f6620746869732060008201527f6e6f746500000000000000000000000000000000000000000000000000000000602082015250565b60006133e96024836126fb565b91506133f48261338d565b604082019050919050565b60006020820190508181036000830152613418816133dc565b9050919050565b600061342b82856130b3565b915061343782846130b3565b91508190509392505050565b7f4552433732313a207472616e736665722066726f6d20696e636f72726563742060008201527f6f776e6572000000000000000000000000000000000000000000000000000000602082015250565b600061349f6025836126fb565b91506134aa82613443565b604082019050919050565b600060208201905081810360008301526134ce81613492565b9050919050565b7f4552433732313a207472616e7366657220746f20746865207a65726f2061646460008201527f7265737300000000000000000000000000000000000000000000000000000000602082015250565b60006135316024836126fb565b915061353c826134d5565b604082019050919050565b6000602082019050818103600083015261356081613524565b9050919050565b7f45524337323155524953746f726167653a2055524920736574206f66206e6f6e60008201527f6578697374656e7420746f6b656e000000000000000000000000000000000000602082015250565b60006135c3602e836126fb565b91506135ce82613567565b604082019050919050565b600060208201905081810360008301526135f2816135b6565b9050919050565b7f496e697469616c697a61626c653a20636f6e7472616374206973206e6f74206960008201527f6e697469616c697a696e67000000000000000000000000000000000000000000602082015250565b6000613655602b836126fb565b9150613660826135f9565b604082019050919050565b6000602082019050818103600083015261368481613648565b9050919050565b7f4552433732313a20617070726f766520746f2063616c6c657200000000000000600082015250565b60006136c16019836126fb565b91506136cc8261368b565b602082019050919050565b600060208201905081810360008301526136f0816136b4565b9050919050565b7f4552433732313a207472616e7366657220746f206e6f6e20455243373231526560008201527f63656976657220696d706c656d656e7465720000000000000000000000000000602082015250565b60006137536032836126fb565b915061375e826136f7565b604082019050919050565b6000602082019050818103600083015261378281613746565b9050919050565b600081519050919050565b600082825260208201905092915050565b60006137b082613789565b6137ba8185613794565b93506137ca81856020860161270c565b6137d38161273f565b840191505092915050565b60006080820190506137f36000830187612840565b6138006020830186612840565b61380d6040830185612bc5565b818103606083015261381f81846137a5565b905095945050505050565b60008151905061383981612661565b92915050565b6000602082840312156138555761385461262b565b5b60006138638482850161382a565b91505092915050565b7f4e487b7100000000000000000000000000000000000000000000000000000000600052601260045260246000fd5b60006138a6826127ab565b91506138b1836127ab565b9250828210156138c4576138c3613031565b5b828203905092915050565b7f4552433732313a206d696e7420746f20746865207a65726f2061646472657373600082015250565b60006139056020836126fb565b9150613910826138cf565b602082019050919050565b60006020820190508181036000830152613934816138f8565b9050919050565b7f4552433732313a20746f6b656e20616c7265616479206d696e74656400000000600082015250565b6000613971601c836126fb565b915061397c8261393b565b602082019050919050565b600060208201905081810360008301526139a081613964565b905091905056fea264697066735822122030393f46e7e71afc559580575769177dc396419a63579b9dca317688c0cb2cd664736f6c634300080d0033",
  "immutableReferences": {},
  "source": "// SPDX-License-Identifier: MIT\r\n// Tells the Solidity compiler to compile only from v0.8.13 to v0.9.0\r\npragma solidity ^0.8.13;\r\nimport \"@openzeppelin/contracts-upgradeable/token/ERC721/extensions/ERC721URIStorageUpgradeable.sol\";\r\nimport \"@openzeppelin/contracts-upgradeable/proxy/utils/Initializable.sol\";\r\nimport \"@openzeppelin/contracts/utils/Counters.sol\";\r\n// import \"@openzeppelin/contracts/access/Ownable.sol\";\r\n\r\ncontract NoteContract is Initializable, ERC721URIStorageUpgradeable {\r\n    using Counters for Counters.Counter;\r\n    // \r\n    Counters.Counter private _listedItems;\r\n    // tokenId\r\n    Counters.Counter private _tokenIds;\r\n    function initialize() initializer public {\r\n        __ERC721_init(\"web3Note\", \"NC\");\r\n     }\r\n    struct Note {\r\n        uint tokenId;\r\n        address creator;\r\n    }\r\n    // tokenURI, \r\n    mapping(string => bool) private _usedTokenURIs;\r\n    // ,tokenIdnote\r\n    mapping(uint => Note) private _noteList;\r\n    // token\r\n    mapping(address => mapping(uint => uint)) private _ownedTokens;\r\n    // tokenId\r\n    mapping(uint => uint) private _idToOwnerIndex;\r\n    event NoteCreated(uint tokenId, address creator);\r\n    // \r\n    function mintNote(string memory tokenURI) public returns (uint) {\r\n        require(!_usedTokenURIs[tokenURI], \"This tokenURI has been used\");\r\n        _tokenIds.increment();\r\n        _listedItems.increment();\r\n\r\n        uint newItemId = _tokenIds.current();\r\n        _safeMint(msg.sender, newItemId);\r\n        _setTokenURI(newItemId, tokenURI);\r\n        _usedTokenURIs[tokenURI] = true;\r\n        _noteList[newItemId] = Note(newItemId, msg.sender);\r\n        emit NoteCreated(newItemId, msg.sender);\r\n        return newItemId;\r\n    }\r\n\r\n    // \r\n    function getOwnedNotes() public view returns (Note[] memory) {\r\n        uint ownedNotesCount = balanceOf(msg.sender);\r\n        Note[] memory items = new Note[](ownedNotesCount);\r\n\r\n        for (uint i = 0; i < ownedNotesCount; i++) {\r\n            uint tokenId = _ownedTokens[msg.sender][i];\r\n            Note storage item = _noteList[tokenId];\r\n            items[i] = item;\r\n        }\r\n        return items;\r\n    }\r\n    // \r\n    function burnTokenId(uint tokenId) public {\r\n        require(msg.sender == _noteList[tokenId].creator, \"You are not the creator of this note\");\r\n        _burn(tokenId);\r\n    }\r\n    function _beforeTokenTransfer(address from, address to, uint tokenId,uint256 batchSize) internal virtual override{\r\n        super._beforeTokenTransfer(from, to, tokenId, batchSize);\r\n        if (from!=address(0)&&from != to) {\r\n            _removeTokenFromOwnerEnumeration(from, tokenId);\r\n        }\r\n        if (to!=address(0)&&to != from) {\r\n            _addTokenToOwnerEnumeration(to, tokenId);\r\n        }\r\n    }\r\n    // tokenId\r\n    function _addTokenToOwnerEnumeration(address to, uint tokenId) private {\r\n        // tonote\r\n        uint length = balanceOf(to);\r\n        // tokenIdtonote\r\n        _ownedTokens[to][length] = tokenId;\r\n        // tokenIdtonoteindex\r\n        _idToOwnerIndex[tokenId] = length;\r\n    }\r\n    // tokenId\r\n    function _removeTokenFromOwnerEnumeration(address from, uint tokenId) private {\r\n        // from\r\n        uint lastTokenIndex = balanceOf(from) - 1;\r\n        // tokenIdfromindex\r\n        uint tokenIndex = _idToOwnerIndex[tokenId];\r\n        /**\r\n         * toukeIdfrom\r\n         * fromtokenId\r\n         */\r\n        if(tokenIndex != lastTokenIndex){\r\n            // fromtokenId\r\n            uint lastTokenId = _ownedTokens[from][lastTokenIndex];\r\n            // fromtokenId\r\n            _ownedTokens[from][tokenIndex] = lastTokenId;\r\n            // TokenIdindex\r\n            _idToOwnerIndex[lastTokenId] = tokenIndex;\r\n        }\r\n        // tokenIdfromNFTindex\r\n        delete _idToOwnerIndex[tokenId];\r\n        // fromNFT\r\n        delete _ownedTokens[from][lastTokenIndex];\r\n    }\r\n}",
  "sourcePath": "C:\\Users\\bkyon\\Documents\\Dapp\\web3Note\\note-contract\\contracts\\NoteContract.sol",
  "compiler": {
    "name": "solc",
    "version": "0.8.13+commit.abaa5c0e.Emscripten.clang"
  },
  "schemaVersion": "3.4.14",
  "updatedAt": "2023-08-30T06:51:43.442Z",
  "networkType": "ethereum",
  "devdoc": {
    "kind": "dev",
    "methods": {
      "approve(address,uint256)": {
        "details": "See {IERC721-approve}."
      },
      "balanceOf(address)": {
        "details": "See {IERC721-balanceOf}."
      },
      "getApproved(uint256)": {
        "details": "See {IERC721-getApproved}."
      },
      "isApprovedForAll(address,address)": {
        "details": "See {IERC721-isApprovedForAll}."
      },
      "name()": {
        "details": "See {IERC721Metadata-name}."
      },
      "ownerOf(uint256)": {
        "details": "See {IERC721-ownerOf}."
      },
      "safeTransferFrom(address,address,uint256)": {
        "details": "See {IERC721-safeTransferFrom}."
      },
      "safeTransferFrom(address,address,uint256,bytes)": {
        "details": "See {IERC721-safeTransferFrom}."
      },
      "setApprovalForAll(address,bool)": {
        "details": "See {IERC721-setApprovalForAll}."
      },
      "supportsInterface(bytes4)": {
        "details": "See {IERC165-supportsInterface}"
      },
      "symbol()": {
        "details": "See {IERC721Metadata-symbol}."
      },
      "tokenURI(uint256)": {
        "details": "See {IERC721Metadata-tokenURI}."
      },
      "transferFrom(address,address,uint256)": {
        "details": "See {IERC721-transferFrom}."
      }
    },
    "version": 1
  },
  "userdoc": {
    "kind": "user",
    "methods": {},
    "version": 1
  }
}